:020000040800F2
:1000000038060020512F0008112A0008152A000880
:1000100000000000000000000000000000000000E0
:10002000000000000000000000000000192A000885
:1000300000000000000000001B2A00081D2A000824
:10004000AB1300080000000053150008D31D000882
:10005000CF2C0008572D0008C52E0008132F0008CC
:10006000000000001F2F00086D2F0008792F0008E6
:100070007B2F00087D2F00087F2F00080000000064
:10008000692B00080000000000000000812F00081C
:1000900000000000832F0008852F0008872F00082C
:1000A000892F00088B2F00088D2F0008792B00085E
:1000B0007B2B000800000000000000000000000092
:1000C00000B500690840884201D1012000E000200D
:1000D00000BDF8B500252E00474C80273F023900AF
:1000E0002000FFF7EDFF002812D1012343480178DB
:1000F0001A000A40D2B2002A0AD1414A11780029D6
:1001000006D11900117001781A000A4302701E000E
:1001100039002000FFF7D4FF012802D12900384818
:1001200001708027FF0139002000FFF7C9FF002878
:1001300014D1012331480178C9B2C9081A000A4014
:10014000D2B2002A0AD12F4A1178002906D11370A1
:10015000017808220A4302700420060039002000BA
:10016000FFF7AEFF012801D12648057008212000C5
:10017000FFF7A6FF00280ED120480178C9B2490830
:100180000A00D207D20F002A05D1022201781143BA
:10019000017016002CE008211B48FFF791FF002892
:1001A0000FD116480178C9B289080A00D207D20FC8
:1001B000002A06D1017804220A43027003200600B7
:1001C00016E0802189012000FFF77AFF00280FD177
:1001D0000A4801780A00D2B212091100C907C90FF2
:1001E000002905D102781021114301700520060075
:1001F0003000C0B2F2BD000000040050F601002043
:10020000FC010020FD010020000C005070B505002D
:100210000C0016003100C9B2012000F0BCFF210023
:10022000C9B2022000F0B7FF2900C9B2032000F0D4
:10023000B2FF70BDF8B50024B148047080256D018F
:100240002900B048FFF73CFF012806D1AE48056001
:1002500080200001AD49086005E080210901AA481D
:100260000160AA480560AA48017801290BD000D294
:100270007FE1032900D18CE059D3052900D100E1A9
:1002800000D2BBE075E1BB4A117801291BD00229DD
:1002900004D003290CD0052919D034E01470B648D5
:1002A0000178491C01700178182900DB04702AE0EC
:1002B0001470B1480178491E01700178182901DBDA
:1002C000172101701FE01470022101701BE01470EF
:1002D00004210170A948042102788A1A19214A438D
:1002E0000270A74904230A789A1A19235A430A70FC
:1002F0000278002A01D1642202700878002801D116
:1003000064200870FFE701209E4908700A249E4D72
:10031000994E3078210000F0C7FF28703078210016
:1003200000F0C2FF6970EC70E878A87021E1914A92
:100330001178012918D01BD303290AD018D21470C0
:1003400092480178491C017001783C2900DB047057
:100350000EE014708D480178491E017001783C2927
:1003600001DB3B21017003E0147003210170FFE702
:10037000012184480170854C0A25834E207829008C
:1003800000F092FFB0702078290000F08DFFF1702E
:10039000EFE07C480078012818D10A277A4D764E84
:1003A0003078390000F080FF28703078390000F094
:1003B0007BFF6970754E3078390000F075FFA870CA
:1003C0003078390000F070FFE97008E00A206E49CB
:1003D00002004A704A780A70C870C8788870654D03
:1003E0002878012809D100226848017862480078FD
:1003F000FFF70CFF664804702C70BAE05D4A117874
:1004000001291CD01FD303290BD01CD214705B48C8
:100410000178193101700178652901DB192101701A
:1004200011E0147055480178E731017001786529B1
:1004300002DA0178002901D16421017003E014700F
:1004400005210170FFE701214E4801704B4C2078D7
:10045000642804D14C4909208870C8700BE00A2533
:10046000494E2078290000F01FFFB0702078290045
:1004700000F01AFFF17044480B2101700C2141700B
:1004800077E03C49087801281CD055D303280BD0CD
:1004900052D20C703A4801781931017001786529FF
:1004A00001DB1921017047E00C7035480178E73114
:1004B00001700178652902DA0178002901D16421EF
:1004C000017039E00C7019272C4D64212878081A26
:1004D000390000F0E9FE2870294E64203178401A76
:1004E000390000F0E1FE307023490878082811DB5C
:1004F000087813280EDA2978624801700DE000BFF1
:10050000130200200004005028040050180400507A
:100510002702002030785B49087001215A48017099
:100520001B48047028785949087031785848017080
:10053000052158480170FFE7012112480170104C55
:100540002078642804D1104909208870C8700BE015
:100550000A260D4D2078310000F0A6FEA870207804
:10056000310000F0A1FEE97007480B2101700D2158
:100570004170F1BD26020020230200202802002045
:100580002B02002001020020D401002024020020C0
:1005900006020020F8B54048C078802802D08228A2
:1005A0001CD05EE00A27002400943C4D2E00009AE7
:1005B0003900300000F0D2FEAA202870CC206870EC
:1005C0000420A87036480078E8702C71802068718B
:1005D0002C490978491C0843A87142E03148324A45
:1005E000117801700178042902DB00232F490B7078
:1005F0002F4952780A700A78042A02DB02232D4A16
:1006000013702D4A1378002B0ED12C4A1378082B27
:1006100006DB1278132A03DA03781A4A137014E0FF
:100620000B78184A137010E01278012A0DD1244A71
:100630001378082B06DB1278132A03DA0378114AA1
:10064000137002E00B780F4A13700278174802709B
:1006500008781849087005210E4801700120C14929
:100660000870F1BD00B5002802D000BF401EFAE7B7
:1006700000BD1448022101600121016004210160D4
:10068000704700002E0200200802002029020020EE
:100690002C02002011020020DC010020B801002003
:1006A0003002002028020020080100202A02002039
:1006B0002B0200202D020020120200201D0200202B
:1006C00020020020180C0050F8B5A74E3078002802
:1006D00002D03078401E30703078012801D100F00F
:1006E00033FAA2490878002803D00878401E087021
:1006F00028E19F480278012A04D1002202700122D9
:1007000098480270052002000A70002499490C7074
:1007100099490C70994A1178012900D099E0147018
:10072000974D984909780A225143964A5278891878
:10073000F0312970944F934989780A225143914AA4
:10074000D2788918F03139708E4909790A225143DB
:100750008C4A52798918F0318C4A11708C490A7888
:10076000002A07D18B4A9279552A03D101220A70B7
:10077000307008E00A78012A05D1864A9279552A14
:1007800001D00C7030702878182800DBDAE0387857
:100790003C2800DBD6E02878401D287038781E30D1
:1007A000387038783C2805DB3878C43038702878C1
:1007B000401C28702878182802DB2878E830287038
:1007C00075480078002818D1744E022000F01BFDF7
:1007D0003070734C032000F016FD207028782178CB
:1007E000884203D13878317888422BD06748027824
:1007F00039782878FFF70AFD24E06A480068E1218B
:10080000090100F054FD08003C2100F050FD66494C
:100810000870664E63480068E121090100F047FD59
:10082000307028783178884204D138785E49097868
:10083000884205D05548027839782878FFF7E6FCD9
:100840005548047001204B49087056204D49C87224
:1008500078E0574A1178012974D11470554F4D4BE7
:1008600019780A2251435A7889183970524D99786B
:100870000A225143DA78891829701A790A214A43E1
:10088000597951184D4A1170414A1178002906D101
:100890009979552903D101211170307007E0117841
:1008A000012904D19979552901D014703070387814
:1008B000182847DA28783C2844DA37480078002896
:1008C00018D1364E022000F09EFC3070344C0320CC
:1008D00000F099FC207038782178884203D128787C
:1008E000317888422BD03548027829783878FFF75C
:1008F0008DFC24E02B480068E121090100F0D7FCC1
:1009000008003C2100F0D3FC27490870274E2548F9
:100910000068E121090100F0CAFC307038783178B4
:10092000884204D1287820490978884205D0234894
:10093000027829783878FFF769FC1748047001209D
:100940000D4908706A480178491C01700178062930
:1009500007DB11490A78002A01D101220A7000211F
:100960000170F1BD080200201102002014020020D5
:100970000E020020090200200A0200200C020020C2
:1009800017020020A40000201802002019020020F5
:10099000FF01002008010020120200201E0200209A
:1009A0001D020020E0010020210200202002002082
:1009B0000F0200201A0200201B0200201C0200204F
:1009C00080B54C480178012927D14B490A78002A83
:1009D00023D14A4A1278002A08D1494A1378494A51
:1009E0001370494A1378494A137007E0484A12784D
:1009F000444B1A70474A1378444A13700122464BFD
:100A00001A700A7000210A0002704448037880229C
:100A10001A4302704248018068E0017804291BD122
:100A20008021C9013F48FFF74BFB00285ED13E48BB
:100A30000178012902D10021017001E0012101703A
:100A400005203A490870354A107880210143117019
:100A500000213348018049E00078052846D1264826
:100A60000078002842D132480178491C0170017891
:100A7000042901DB00210170204A117800290ED1E0
:100A80001F4A1178082906DB1178132903DA017847
:100A90002848017014E001782748017010E01178AF
:100AA00001290DD11A4A1178082906DB117813297A
:100AB00003DA01781F48017002E001781E480170D6
:100AC0001C4801781D4801701B4801781C480170C2
:100AD00005211648017001211A4801700F4A10784B
:100AE00080210143117000210D48018001BD0000EB
:100AF000130200202602002006020020120200201D
:100B00001D020020230200201E02002024020020DB
:100B1000200200202102002027020020F6010020F0
:100B2000EC01002000040050FE0100201102002012
:100B30002E020020280200202B0200202902002083
:100B40002C0200200802002070470000F8B5B148D0
:100B5000017800290AD000210170AF4CFFF7B9FAE3
:100B600020702078002801D0FFF72AFFAB480078DA
:100B7000012807D1FFF75EFBBB4A107880210143B3
:100B80001170E8E1B9480078002803D0012800D1AD
:100B9000E3E0E0E1B6480178012906D100210170C7
:100BA000012000F030FBB3490870B2480078B24928
:100BB0000978884200D1CFE00026B0480670B048DE
:100BC0000078012803D10221AE48017009E0BD4838
:100BD0000078012803D10321AA48017001E0A94847
:100BE0000670B94D022000F00EFB2870B74C0320B0
:100BF00000F009FB2070B648017800290AD0B549F9
:100C00000978002903D00122B3490A700CE0B249E7
:100C10000E7009E0B1490978002903D00122AE49DC
:100C20000A7001E0AC490E702178082926DB217892
:100C3000132923DA017800290ED0C74EC7490A7854
:100C400033789A4208D0307808700122C448027084
:100C50000978C448017034E00078002831D1C248D6
:100C6000BE490A7803789A422BD000780870012296
:100C7000BB4802700978BB48017022E00178002966
:100C80000ED0BA4EBA490A7833789A4208D03078F2
:100C900008700122B24802700978B248017010E071
:100CA000007800280DD1B34BB14801781A789142F1
:100CB00007D0197801700121A94A11700078A9495B
:100CC000087085480078012807D120780D2804DBBA
:100CD0002078F430A849087002E02078A64908700E
:100CE000A64F0A26A4480078310000F0DDFA3870DB
:100CF000A1480078310000F0D7FA797028783100E7
:100D000000F0D2FAB8702878310000F0CDFAF9700E
:100D10005848027858490A70217807290CD12A7856
:100D200001781143C9B2002906D18C490A788D494E
:100D30000A7001228A490A70217813290CD1297876
:100D400000780843C0B2002806D189480178854858
:100D50000170012082490870FDE08948017801296D
:100D600000D0F8E0002606704448067001273800DD
:100D7000444908703C24834D2868E121090100F0B2
:100D800096FA0800210000F092FA7F480170286866
:100D9000E121090100F08BFA0800210000F087FA38
:100DA0007A4908707A4C2868E121090100F07FFA3D
:100DB00020704748017800290AD04649097800295F
:100DC00003D03A0044490A700CE043490E7009E030
:100DD00042490978002903D03A003F490A7001E0EE
:100DE0003D490E70217808292CDB2178132929DA56
:100DF0000178002914D0584D58490A782B789A4226
:100E00000ED0287808703A00554802700878554985
:100E100008704AE0FA0100202602002006020020A5
:100E20000078002841D1504B4C4801781A78914203
:100E30003BD0197801703A0049490A700078494955
:100E4000087032E0017800291ED0484D48490A78E0
:100E50002B789A4218D0287808703A0040480270DF
:100E600008784049087020E0F601002012020020B6
:100E70000D0200201F020020250200201302002086
:100E80000902002015020020007800280DD1394801
:100E900037490B780278934207D0007808703A00FF
:100EA0002F48027008782F4908700B4800780128F5
:100EB00016D120780D2813DB2078F4302E490870E5
:100EC00011E000BF0A0200201E0200201D020020C7
:100ED000F8010020FF01002007020020FE01002091
:100EE000217825480170254D234E30780A2100F0E5
:100EF000DBF9287030780A2100F0D6F96970234EAA
:100F000030780A2100F0D0F9A87030780A2100F07A
:100F1000CBF9E970207807280DD130781A49097883
:100F20000143C9B2002906D10C4801780D4801706F
:100F300039000B480170207813280CD13078124901
:100F400009780143C9B2002905D10948007805494B
:100F5000087003480770F1BD2A0200202802002013
:100F6000080200202E020020290200202D0200206D
:100F70002B0200202C02002016020020D4010020A9
:100F800005020020E00100202202002021020020B2
:100F900020020020F8B563480078012867D1624834
:100FA0000078002802D10A215F480170002738002C
:100FB0005C4908705D485C495D4A12788A5C04218E
:100FC0004A4381585B48018001265B4C30002080F9
:100FD0005A4D2F80288810281CDA5648018820880E
:100FE000014203D020205649086002E020205549E4
:100FF00008606420FFF736FB514806606420FFF765
:1010000031FB504806602088400020802888401C22
:101010002880DFE745484449454A1278895C042224
:1010200051434058434908802F80288810281CDAF3
:10103000404801882088014203D0202140480160B7
:1010400002E020213F4801606420FFF70BFB3C4891
:1010500006606420FFF706FB3A48066020884000DF
:1010600020802888401C2880DFE7374806703748F2
:101070000178012914D1002421000170344D287811
:10108000401C2870334801782878814201D2FFF74C
:10109000F0FA2878042803DB01212F4801702C7016
:1010A0002D48017801293CD1002421000170210044
:1010B00025480170FFF7DDFA02252148056014205C
:1010C000FFF7D0FA1F48056024480178012901D1B3
:1010D0002100017022480178002903D002290DD097
:1010E00007D311E004211F4A1160012210490A7040
:1010F0000AE01C490D600E490D7005E001221949F6
:101100000A6022000A490A700178491C01700178BE
:10111000042903DB047001211348017001200149F7
:101120000870F1BD04020020D4010020582D0008F1
:101130002F020020EE010020EA010020F201002031
:10114000180400502804005002020020F70100207B
:10115000320200202E02002003020020080200209C
:1011600031020020280C00500D02002010B5002193
:101170000C2000F010F8012000F045F804002000D9
:10118000C0B2802806DB394800784106490E0120AC
:1011900000F001F810BDF1B582B00C000A25200066
:1011A000C0B2290000F080F807002000C0B229007A
:1011B00000F07AF8684601703800C0B20001694654
:1011C000097841186846417000F035F9D02000F0E8
:1011D0005FF9274E8025356000F04DF96846007AAA
:1011E00000F056F9356000F046F96846407800F0A6
:1011F0004FF92048056000F03EF900F02CF91E4838
:1012000000F0DDF8F7BDF8B5070000F014F9D020C4
:1012100000F03EF9164E8024346000F02CF93800BE
:10122000C0B200F035F9346000F025F900F003F9A0
:10123000D12000F02DF9346000F01DF900F052F9D2
:101240000500346000F017F900F005F92900C9B273
:1012500009090A2041432A07120F88180300DBB24C
:101260003D2B01DB6E231800C0B2F2BD1F0200202F
:10127000180400502804005010270000F4460028ED
:1012800004D4494200F013F840426047404200292C
:1012900005D45FD000F00BF8404249426047494214
:1012A00000F005F84942604703460B43E6D40022AC
:1012B000030A8B420BD203098B4219D243088B429B
:1012C0002ED2411A00D20146524110467047FF22E9
:1012D00009023FD012068B4205D3121209028B423B
:1012E00001D31212090203098B4219D300E0090A43
:1012F000C3098B4201D3CB01C01A524183098B42EF
:1013000001D38B01C01A524143098B4201D34B01D7
:10131000C01A524103098B4201D30B01C01A52413A
:10132000C3088B4201D3CB00C01A524183088B42C1
:1013300001D38B00C01A524143088B4201D34B00AA
:10134000C01A5241884200D3401A5241CFD20146BE
:101350001046704708B500F0FBF808BD1206130AE6
:101360001A43130C1A4300BF094205D0830705D066
:101370000270401C491EF9D170470000130010395B
:1013800006D330B41400150010393CC0FCD230BC78
:10139000490700D30CC000D504C0890002D30280E5
:1013A000801C002900D502707047FEE700B5006977
:1013B0000840884201D1012000E0002000BD80B536
:1013C0000100481E002908D004210091009900293D
:1013D000F6D00099491E0091F8E701BDF8B586B036
:1013E000C0200090012001900221029103900490FE
:1013F0006946534800F00BF9524D00202880524FA7
:1014000080243C6080214E48FFF7D0FF00280DD19A
:10141000288808280ADA40264C4806600120FFF791
:10142000CEFF3E602888401C2880EBE73C604020CF
:10143000386007B0F0BD70B5434880260660402490
:1014400004600120FFF7BBFF404D2E600120FFF735
:10145000B6FF2C6070BD70B53C4880260660402405
:1014600004600120FFF7ABFF374D2C600120FFF730
:10147000A6FF2E6070BD10B54024334804600120E3
:10148000FFF79DFF314804600120FFF798FF10BD72
:10149000F1B5802600242000C0B208281BDA2B4FAB
:1014A00040253D600120FFF78AFF68460078304202
:1014B00003D080212448016001E0802038600120B1
:1014C000FFF77DFF204805600120FFF778FFF6B2A7
:1014D0007608641CDFE740211C4801600120FFF70B
:1014E0006EFFF1BDF8B580210D00174801600024A2
:1014F00027002000C0B2082818DA402613480660EA
:101500000120FFF75CFF104806600120FFF757FF3E
:1015100080210B48FFF74AFF012800D12F4301200B
:10152000FFF74DFFEDB26D08641CE2E7402107486C
:1015300001600120FFF743FF3800C0B2F2BD000098
:1015400000040050F201002018040050280400504C
:101550007047FEE730B403680D004D430324654334
:10156000AB430C004C4354431C43046030BC7047F5
:1015700010B444688C430B0053432343436010BCB6
:10158000704730B483680D004D4303246543AB437B
:101590000C004C4354431C43846030BC704730B44F
:1015A000C3680D004D4303246543AB430C004C431B
:1015B00054431C43C46030BC704730B4036A0D0010
:1015C0004D434D434D430F246543AB430C004C4307
:1015D0004C434C4354431C43046230BC704730B40A
:1015E000446A0B0A0D0A6B430D0A6B430D0A6B43E9
:1015F0000F256B439C430B0A0D0A6B430D0A6B438B
:101600000D0A6B4353432343436230BC7047F8B524
:1016100006000C0000252068E840002832D0216830
:101620000120A84008400700002F29D06068012849
:1016300002D06068022809D1A26839003000FFF7A3
:10164000A0FFE26839003000FFF792FF22693900FD
:101650003000FFF7A4FF606802280CD1FF2F05D8E7
:10166000626939003000FFF7A8FF04E062693900C1
:101670003000FFF7B4FF626839003000FFF76AFFFF
:101680006D1CC8E70020F2BD10B50400002C01D18C
:1016900001202AE03D20205C002805D100213C20CB
:1016A0002154200000F06EFA02213D202154211D1A
:1016B000206800F0A1F90120482160543E216054C7
:1016C0003F216054402160544121605442216054C4
:1016D00043216054442160544521605446216054A4
:1016E000472160543D216054002010BD10B5010019
:1016F0003D20085C012801D0012027E002233D2085
:101700000B5401200B68DC6804430B68DC600C6838
:101710000F4B9C4203D00C680E4B9C4210D10B68BF
:101720009C680D4B23401A00062A0ED080235B02D2
:101730009A420AD00B681B6818430B68186004E0D3
:101740000B681B6818430B681860002010BD000070
:10175000002C01400004004007000100F8B506001D
:101760003068C06800903068076902252F421BD09E
:1017700000982840002817D00221C9433068016131
:1017800001203077306880698007800F002803D0FF
:10179000300000F015FA05E0300000F012FA3000D9
:1017A00000F010FA00203077042427421BD0009864
:1017B0002040002817D00420C043316808613577E5
:1017C00030688069C02189000140002903D03000C1
:1017D00000F0F6F905E0300000F0F3F9300000F019
:1017E000F1F90020307708252F421AD000982840C0
:1017F000002816D00821C943306801613477306869
:10180000C0698007800F002803D0300000F0D8F9AD
:1018100005E0300000F0D5F9300000F0D3F90020E9
:10182000307710210F421BD000980140002917D0BB
:101830001021C9433068016135773068C169C02023
:1018400080000840002803D0300000F0B9F905E01E
:10185000300000F0B6F9300000F0B4F90020307725
:1018600001210F420AD000980140002906D0012131
:10187000C94330680161300000F0A5F98220800181
:101880003840002808D00098000605D51649306871
:101890000161300000F098F9F80508D500980006BD
:1018A00005D5124831680861300000F08EF94021FA
:1018B0000F420AD000980140002906D04021C943B8
:1018C00030680161300000F081F920210F420AD018
:1018D00000980140002906D02021C94330680161E9
:1018E000300000F074F9F1BD7FDFFFFFFFFEFFFF66
:1018F000FEB504000D000027684607703C20205C00
:10190000012801D1022072E001263C202654022049
:101910003D216054206881683548084035490140C0
:1019200001910199206881602968002952D010290D
:1019300050D020294ED030294CD0402940D05029B9
:101940002AD0602932D0702909D0802040018142FC
:1019500004D080208001814210D040E041E0EB685B
:101960006A68A968206800F0C0F82068816877205C
:101970000843019001992068816032E0EB686A6851
:10198000A968206800F0B1F8206881688020C00153
:1019900008432168886024E0EA686968206800F0EC
:1019A00075F85021206800F097F81AE0EA68696835
:1019B000206800F07DF86021206800F08DF810E0CC
:1019C000EA686968206800F061F84021206800F04A
:1019D00083F806E02968206800F07EF801E0684698
:1019E00006703D2026543C20275468460078FEBDF2
:1019F00088FFCEFFFF00FFFF10B504681D4A90422C
:101A000002D01D4B984204D170239C4323004C68A4
:101A10001C4390420BD0184B984208D0174B984269
:101A200005D0174B984202D0174B984203D1154B63
:101A30002340CC681C4380239C434B6923430360B1
:101A40008C68C4620C688462904205D00C4A904253
:101A500002D00D4A904201D10A6902630124446117
:101A600002691440002C03D00469012294430461EC
:101A700010BD0000002C0140000400400020004088
:101A800000440140FFFCFFFF0048014030B4036AFE
:101A9000056A0124A54305628569F024A543140164
:101AA0002C430A25AB430B438461036230BC70476F
:101AB00030B4036A056A1024A54305628469124D97
:101AC000254014032C43A025AB430D011D43846125
:101AD000056230BC7047000083680A4A1A400A4316
:101AE0000723134383607047000030B48568074CB8
:101AF0002C400C4314431D022543856030BC7047C5
:101B0000000000008FFFCFFFFF0FFFFFFF00FFFF70
:101B100030B587B010210024220003AD2800FFF764
:101B20001DFC0C2122006D462800FFF717FC214DFB
:101B3000214828603F206860AC606320E8602C6129
:101B4000AC612800FFF7A0FD002801D000F03EF9AD
:101B500080204001039003A92800FFF7C9FE002858
:101B600001D000F033F9009402946946280000F097
:101B700031F9002801D000F029F92800FFF7B6FD5F
:101B800007B030BD1CB5040021680B48814210D15C
:101B900002200A4A11680143116011680840009050
:101BA000009800220021102000F0BBF9102000F066
:101BB000C2F913BD6C010020000400403C1002403B
:101BC000704770477047704770477047704770475D
:101BD0006E4A1068802149020143116070476B48CA
:101BE000016808008003C00F7047694A106801212E
:101BF0000143116070476648016808008007C00F04
:101C00007047644B1968072291430143196070477C
:101C1000604801683820084070475E4B19685E4A8A
:101C20000A4002431A6070475A4B19685B4A0A40DF
:101C300002431A607047554A1068802149040143E5
:101C4000116070475148016808008001C00F70475B
:101C500070B4534C2668534D354005430D4316026E
:101C60002E431E43266070BC70474D4A1068802189
:101C700049050143116070474B4B19680722914396
:101C8000014319607047484800684007400F70479B
:101C9000464A10688021490001431160704780B5B1
:101CA00000F024F800F069F941480178012903D1D6
:101CB00000210170FEF708FD3E480178012910D18E
:101CC00001213D4A117005233C4A13700022027025
:101CD0003B48C078812802D13A48017001E0FEF704
:101CE00059FCFEF733FFFFF755F9DDE780B500F04B
:101CF00021FA00F00DF800F040FAFFF76FFBFFF754
:101D000035FA00F0ADFB00F018FCFFF701FF01BD54
:101D100080B50220FFF7B0FFFFF7B5FF0228FBD127
:101D2000FFF756FFFFF75BFF0128FBD1FFF75DFFD1
:101D3000FFF761FF0128FBD1FFF7AAFF8023DB0536
:101D4000102200210320FFF783FFFFF774FFFFF746
:101D50008CFFFFF777FF0128FBD10020FFF75DFF25
:101D60000220FFF74EFFFFF753FF1028FBD10020A2
:101D7000FFF75AFF144800F055FC032000F058FC10
:101D8000002801D000F022F801BD00000010024040
:101D90006010024008100240FFF0FFFFFF8FFFFFBE
:101DA0000C1002408C80FF1F002002400070004099
:101DB000000200200B020020F80100201002002089
:101DC000DC0100200F0200200090D00300B572B6A5
:101DD000FEE7FEE770B502003C20105C012801D14F
:101DE00002202BE001203C23D05402243D23D45474
:101DF00013685E6813689B68114D1468AC4203D188
:101E0000104C34404E6826437024A6430C6834437B
:101E1000166874601668AE4203D016680A4DAE426A
:101E200006D18025AB431D008B682B431568AB6042
:101E30003D25505500253C201554002070BD000064
:101E4000002C0140FFFF0FFF0004004000B501001F
:101E500049B2002905D40121C206D20E91403C4A64
:101E6000116000BDF0B5020052B2002A1CD4032755
:101E7000384A03005BB29C0804235C431359FF25D6
:101E80003C00044008267443A540AB438C01E4B2F7
:101E9000074008256F43BC401C4303005BB29D080C
:101EA00004235D43545122E00F242B4A03230500F1
:101EB0006DB22540083DAD0804267543AC460500CB
:101EC0006DB22C40083CA508042465435659FF27F1
:101ED0001D00054008246543AF40BE438C01E4B2B9
:101EE000034008256B439C40344365465451F0BD84
:101EF00010B50400611E80204004814201D30120FE
:101F00000EE0611E1548016003210020C043FFF769
:101F1000A9FF00211248016007211248016000203A
:101F200010BD70B505000C0016002100280040B25D
:101F3000FFF798FF70BD10B50400200040B2FFF716
:101F400085FF10BD10B504002000FFF7D1FF10BDC4
:101F500000E100E000E400E01CED00E014E000E03F
:101F600018E000E010E000E000B500690840884299
:101F700001D1012000E0002000BDF8B58021C90199
:101F80005B48FFF7F1FF002800D09EE0012159488F
:101F90000180594859490A7804214A438058410030
:101FA00057480180002157480180564E308810283C
:101FB00020DA504C524801882088014203D0202169
:101FC0005148016002E020215048016001254E483F
:101FD000056096277F003800FEF744FB4B480560FC
:101FE0003800FEF73FFB2088400020803088401CEE
:101FF0003080DAE746480078401C454908700126E1
:1020000031003C48018000213E4801803D4C208841
:1020100010281FDA374D3A4801882888014203D03A
:1020200020213948016002E020213848016036480B
:10203000066096277F003800FEF714FB33480660E1
:102040003800FEF70FFB2888400028802088401CBD
:102050002080DBE7FEF70DFB0A20FEF703FB0224DE
:10206000294804600A20FEF7FDFA28480460294840
:102070000178012904D10021017000212648018046
:102080001E480178002903D002290DD007D310E0A3
:10209000042222490A6031001D4A117009E01F49DB
:1020A0000C601B490C7004E01C490E6000221849AA
:1020B0000A700178491C01700178032900DA5DE794
:1020C000002101701648067058E7002002001549EB
:1020D0000A70154908700120020014490A700200B4
:1020E0000C490A700A490870102111480160F1BDBD
:1020F00000040050EA010020582D000831020020A1
:10210000EE010020F20100201804005028040050C5
:102110002F02002008020020EC010020280C0050B3
:102120000D020020130200201202002004020020F1
:102130002800005010B50024094A10688021490089
:1021400001431160032000F073FA002802D001203F
:10215000040001E000F09EFA2000C0B210BD0000B3
:102160000020024081B0594A116801431160116892
:1021700001400091009901B07047F8B586B0182170
:10218000002422006D462800FFF7E8F82020FFF722
:10219000E9FF0120FFF7E6FF0220FFF7E3FF082039
:1021A000FFF7E0FF022700970125019502940394B1
:1021B00004946946A020C005FFF729FA8020400159
:1021C00000900195029403940494414E69463000B6
:1021D000FFF71DFA00950195029403940494694653
:1021E0003C48FFF714FA0097019502940394049475
:1021F00069463848FFF70BFA0420009001950294D5
:102200000394049469463348FFF701FA08200090CC
:102210000194049569462F48FFF7F9F908200090CA
:102220000194049569463000FFF7F1F980208001A0
:1022300000900194049569463000FFF7E8F980208A
:10224000C00100900194049569463000FFF7DFF962
:102250008020000200900194049569463000FFF749
:10226000D6F9802000010090019502940394049413
:1022700069463000FFF7CBF900950195029403946D
:10228000049469463000FFF7C2F900970195029463
:102290000394049469463000FFF7B9F910200090C8
:1022A00001950294039404946946A020C005FFF7A9
:1022B000AEF920200090019502940394049469469D
:1022C0003000FFF7A4F907B0F0BD00003410024061
:1022D00000040050000C005000B5010049B2002974
:1022E00005D40121C206D20E9140C24A116000BD40
:1022F000F0B5020052B2002A1CD40327BE4A0300E4
:102300005BB29C0804235C431359FF253C00044046
:1023100008267443A540AB438C01E4B2074008256E
:102320006F43BC401C4303005BB29D0804235D4324
:10233000545122E00F24B14A032305006DB2254019
:10234000083DAD0804267543AC4605006DB22C402F
:10235000083CA508042465435659FF271D00054085
:1023600008246543AF40BE438C01E4B20340082516
:102370006B439C40344365465451F0BDA0490A6804
:10238000030C9A4383B213430B60704781B09D4A9C
:10239000116801431160116801400091009901B07A
:1023A000704781B0984A116801431160116801407B
:1023B0000091009901B0704781B0944A11680143BF
:1023C0001160116801400091009901B070470268E6
:1023D000012111430160704702688D49114001607D
:1023E000704710B4EFF31082012383F310888368E1
:1023F000DC00E4084B072343836082F3108810BCA1
:10240000704710B4EFF31082012383F310888468BF
:10241000804B23404C061C43846082F3108810BC20
:10242000704742687C491140416082682A218A4392
:1024300082607047C16908008002C00F7047C1699F
:1024400008004002C00F7047EFF31081012282F3B1
:102450001088036820221A43026081F310887047B5
:10246000F8B58EB020210024220006AD2800FEF72A
:1024700075FF182122006D462800FEF76FFFC0206F
:102480008002FFF77BFF8020C001FFF78AFF012059
:10249000FFF792FF802080000090022601960294B0
:1024A0000394049401250595A027FF05694638008B
:1024B000FFF7ADF88020C0000090019602940394CD
:1024C0000494059569463800FFF7A1F800211B2008
:1024D000FFF70EFF1B20FFF7FFFE0694E1204002EE
:1024E0000790089409940A940C200B900C940D9476
:1024F0004A4C06A9200000F03DF900212000FFF71A
:1025000070FF00212000FFF77CFF2000FFF764FF31
:102510002000FFF786FF2000FFF759FF2000FFF79C
:1025200089FF0028FAD02000FFF789FF0028F5D0A6
:102530002000FFF789FF0FB0F0BDF8B58EB0202165
:102540000024220006AD2800FEF708FF1821220013
:102550006D462800FEF702FF80208002FFF716FF7D
:102560000120FFF729FF0420009002260196029423
:102570000394049401250595A027FF0569463800BA
:10258000FFF745F808200090019602940394049404
:10259000059569463800FFF73AF800211C20FFF73F
:1025A000A7FE1C20FFF798FE0694E120400207904A
:1025B000089409940A940C200B900C940D94184CD8
:1025C00006A9200000F0D6F82000FFF72AFF20001F
:1025D000FFF7FDFE2000FFF72DFF0028FAD02000B6
:1025E000FFF72DFF0028F5D02000FFF72DFF0FB0DB
:1025F000F0BD000000E100E000E400E01CED00E0C0
:10260000541002403C10024040100240341002407E
:10261000FFFFFFDFFFFFFFF1FFB7FFFF00380140C3
:102620000044004001490860704700000400002099
:1026300038B5050000241449087800281ED0FA2077
:1026400080000978FEF733FE010010480068FEF7AD
:102650002EFEFFF777FC00280DD1042D08D20022B2
:1026600029000020C043FFF75CFC0948056007E033
:102670000120040004E00120040001E00120040026
:102680002000C0B232BD00BF0800002004000020BE
:102690000000002081B00120094A11680143116047
:1026A000116808400090009880204005054A116894
:1026B00001431160116808400090009801B0704714
:1026C000401002403C10024001680800C007C00FE3
:1026D0007047C26A0F239A430B009BB21A43C2622F
:1026E00070474368474A1A400A434260704783680C
:1026F000454A1A400A4382607047FEB506000F0043
:102700001400089D0C2C34D2002D32D00299802068
:10271000000281421DD138003C4B2100C9B2042285
:1027200051435958FEF7C3FD022148436908401838
:102730002900FEF7BCFD80B20090009934480840A3
:10274000009949084907490F084301900198F06032
:102750000FE038002D4B2100C9B2042251435958D3
:10276000FEF7A5FD690840182900FEF7A0FD80B21C
:10277000F060F7BDF0B585B006000C00012700251C
:1027800001953000FFF7A0FF002836D131682348BB
:102790000840A16801432069084361690143E06979
:1027A00008433060E1683000FFF79BFFA16930000B
:1027B000FFF79DFF1748864204D1032000F076F80A
:1027C000019007E01448864204D102A800F060F8A6
:1027D00004980190019800280BD06068002808D068
:1027E0002F0060680090E369226801993000FFF7CC
:1027F00084FF21683000FFF76CFF3800C0B205B0DD
:10280000F0BD0000FFCFFFFFFFFCFFFF142E00080C
:10281000F0FF00000038014000440040F369FFEF82
:102820003848016808004005C00F70473648016805
:1028300008008007C00F70473448016838200840FE
:10284000704732480168F0200001084070472F4867
:102850000168E020C001084070472D490968014027
:1028600000040843704740480068000A4006400ED4
:1028700070473D480068400F400770473A4800687D
:102880008007800F70473848016870200840704703
:1028900010B5040000F03EF82060206800F054F805
:1028A0006060606800F062F8A06010BD38B5050097
:1028B0000024032D24D12800FFF7CFFF4549401AFB
:1028C00004D0401E06D0401E0BD012E000F022F8CB
:1028D000040015E0FFF7A4FF012801D13E480400E1
:1028E0000EE0FFF7A3FF012802D1802000020400C0
:1028F00006E000F00FF800F027F800F037F80400C9
:10290000200032BD001002405C100240081002405E
:102910005410024010B5FFF78FFF082802D010288E
:1029200002D004E02D480EE000F030F80BE001206A
:1029300015490968C90A4907490F88400400264813
:102940002100FEF7B4FC10BD10B50400FFF779FFBD
:102950002349000A0207120F04204243885CC00684
:10296000C00EC440200010BD0C10024010B5040081
:10297000FFF76DFF1B49020B04204243885CC00631
:10298000C00EC440200010BD0010024070B5FFF71B
:1029900075FF05002800022802D0032802D003E0BA
:1029A0000D4C02E00D4C00E00B4CFFF75CFF060005
:1029B000FFF769FF0100664330000909491CFEF773
:1029C00076FC0600FFF755FF410F491C3000FEF76B
:1029D0006EFC70BD010003000024F40000127A00B8
:1029E000982D0008C82E0008C16908008006C00F95
:1029F000704701210162704702210162704708217E
:102A000001627047102101627047402101627047E6
:102A100000B5FEE700B5FEE77047704780B57E4819
:102A20000178002903D00178491E01700BE0C8210C
:102A30000170012179480170794801784906490EF1
:102A400001700021017077480188002903D00188B6
:102A5000491E01804AE0FF21F4310180724801786B
:102A6000012902D10021017001E0012101706F49AB
:102A7000097800293AD16E490978002905D0022940
:102A80001CD012D3032929D030E06A4980221201D8
:102A90000A600078012804D180214901664801605C
:102AA00002E080204001086020E0802109016148A7
:102AB0000160802149016048016017E05D49802282
:102AC00052010A600078012804D1802109015A4886
:102AD000016002E080200001086007E080214901D8
:102AE000544801608021090153480160012002001F
:102AF00052490A7052490A88002A03D00888401EA9
:102B000008802EE04F4A0A804F4908704F480078ED
:102B1000002804D14E490888401C088002E00021AA
:102B20004B4801804A480188022902D102224949C2
:102B30000A600288E12109018A4204DB0021018048
:102B400002204549086045480178002903D00178F2
:102B5000491E017005E042480178002901D000219A
:102B6000017000F091F801BD80B501213D48017070
:102B70003D48FEF7F3FD01BD7047F8B500252F0075
:102B80003A4C2000FFF730FF012832D13848066860
:102B90003000C0B20A2820D136482900364A1278BF
:102BA0008154364900F07CF80700002832D03F1DE0
:102BB000334C3900200000F08BF829002E480170BA
:102BC000E07A412806D1012002002E490A701F49EF
:102BD00008701FE01D4805701CE02748254A017851
:102BE00056540178491C01700178642912DB057084
:102BF00010E02000FFF709FF2000FFF700FF200092
:102C0000FFF7FAFE2000FFF7F4FE2000FFF7FAFEC0
:102C100017480668F1BD000033020020FA010020C9
:102C2000F6010020F0010020010200200602002031
:102C3000150200201804005028040050FB01002059
:102C4000E8010020E703000000020020F901002055
:102C5000F40100202800005018000050100200204D
:102C6000F8010020F70100206C0100200044004022
:102C7000244400400C00002034020020702F000883
:102C8000080100200C02002003480168034A127862
:102C900089180160704700BFE4010020080000208F
:102CA00070B50C78002C11D00D0004E0761C317842
:102CB000994207D0401C210000F044F8002805D0BC
:102CC00006002A00521C1378002BEFD170BDFEE7DE
:102CD00031B48B0707D00B780370002B20D0401C39
:102CE000491C8B07F7D1164CE501830722D104C993
:102CF000131B93432B4205D104C004C9131B9343F8
:102D00002B42F9D0FF231A42027009D0120A1A424C
:102D1000427005D0120A1A42827001D0120AC270A3
:102D200031BC70470270120A4270120A8270120A95
:102D3000C270001D04C9131B93432B42F2D0E1E77C
:102D400001010101C9B202788A4203D0401C002A65
:102D5000F9D100207047FEE7FF7E0000007C0000F4
:102D6000EC7700008F7F00003B7D0000BF5F00001C
:102D7000FF5F00000F7C0000FF7F0000BF7F0000AE
:102D800000000000F0010000C0FF0000B03B0000A8
:102D9000FF710000FF46000000000000000000007E
:102DA0000000000000000000000000000000000023
:102DB0000000000000000000010000000200000010
:102DC00003000000040000000600000007000000EF
:102DD000080000000900000070B40121002213E087
:102DE0000368001D0B4202D04D46EB185B1E1A60B3
:102DF0001B1D241F042CFAD21D00A60701D51A8022
:102E0000AD1C0C4000D02A700468001D002CE7D1D6
:102E100070BC7047010000000200000004000000C8
:102E200006000000080000000A0000000C0000007E
:102E300010000000200000004000000080000000A2
:102E40000001000030B401210EE00368C31844689B
:102E500008300C4202D04D462C19641E1D682560B6
:102E60001B1D241D121FF9D10268001D002AECD180
:102E700030BC704710B5034A7A440832024C7C4497
:102E8000A41D03E01C0000003C00000004E0101D35
:102E90001168511888470200A242F8D110BD000005
:102EA00039FFFFFF2C0200000C0000200000000092
:102EB00095FFFFFF0C000000A800000000000020AC
:102EC00000000000FEE7000000000000000000001D
:102ED00000000000000000000100000002000000EF
:102EE000030000000400000000F00DF8002801D0ED
:102EF000FFF7C0FF00BF00BF002000BF00BFFEF70C
:102F0000CEFE00F002F80120704780B500F002F814
:102F100001BDFEE70746384600F002F8FBE7FEE792
:102F200080B500BF00BF024A11001820ABBEFBE70E
:102F3000260002000548014603B4684680F309886C
:102F400000BF00BF00BF00BFFFF7CEFFA5EDF5FE3D
:102F50000148804701480047912F0008352F00089D
:102F6000040000000024F40001000000FEE700005F
:102F7000524D432C00000000FEE7FEE7FEE7FEE7AF
:102F8000FEE7FEE7FEE7FEE7FEE7FEE7FEE70000FE
:022F9000704788
:0400000508002F358B
:00000001FF
