:020000040800F2
:10000000B8050020454D00088548000887480008CD
:1000100000000000000000000000000000000000E0
:1000200000000000000000000000000089480008F7
:1000300000000000000000008B4800088D48000808
:100040008712000800000000EB170008EF170008F7
:10005000D9480008F3170008132A0008CF49000800
:1000600000000000CB4A00081B4D0008274D000887
:10007000554D0008574D0008594D0008000000007C
:100080005B4D000800000000000000005D4D00080E
:10009000000000005F4D0008614D0008634D00083E
:1000A000654D0008674D0008694D0008DD480008EF
:1000B000854900080000000000000000000000006A
:1000C0000100202008437047FDB5B2B03A98049172
:1000D00002A93B22885400200D9027A8401C319093
:1000E0000DE00498329A90470490002801D100F066
:1000F000CDFE0D98401C0D903398401C33903398E2
:100100000178002910D02529EBD100200790089014
:1001100009900A900B900C90002102250120149068
:1001200008201290339C05E00D9800F0B1FE080005
:1001300014990143641C20782028F8D023280BD080
:100140002B2804D02D2804D0302808D00AE02943D9
:10015000F0E708000421ECE708000821E9E70800BF
:100160001021E6E72A280FD1349802681068121D82
:10017000349B1A600F90002804D542420F92080069
:1001800004210143641C12E000200F90644A09E03E
:100190000F9B934205DA9E00F3185B001818303865
:1001A0000F90641C20780300303B0A2BF0D320789A
:1001B0002E2803D00020C0430E9027E0641C207836
:1001C0002A2808D1349800680268001D349B186002
:1001D0000E92641C1AE02D2802D12D22641C00E02E
:1001E000002200200E900CE0002A09D10E9B4C4EFC
:1001F000B34205DA9E00F3185B00181830380E90F1
:10020000641C20780300303B0A2BEDD302A8018741
:100210002678310040487844FF30401E00F01EFF31
:10022000002801D0641C00E0002602A83A214654B0
:10023000405C682804D1207868280BD1622005E052
:100240006C2807D120786C2804D1712002A93A22A9
:100250008854641C18A80690207869460870601CB1
:100260003390684604782000253833D01C3800D1FC
:10027000CCE1001F022800D8C8E1133801D100F0FA
:100280002FFD093800D1C1E1801E01D100F0C5FD6C
:10029000401E01D100F072FD401E022800D8B5E1D9
:1002A000001F01D100F06AFD401F00D108E1401E8F
:1002B00001D100F015FD401E00D1F0E0C01E0ED0AF
:1002C000801E01D100F00CFDC01E01D100F008FD20
:1002D00000F0AEFD14980790252018A97CE1349811
:1002E00000680468001D349908600594002C00D053
:1002F000C1E002A83B21405C002800D1B5E0002409
:10030000E44306487844143000F0B6FE201A01D0C9
:1003100000F0BCFD00F099FD484700007C4700005C
:10032000CBCCCC0C01236A4602A9280000F06AFE5F
:10033000002801D000F0AAFD641EF3D13295079D7C
:1003400018AC002D0FD0329E21780498B04704904D
:10035000002801D100F09AFD0D98401C0D90641CFE
:100360006D1EF1D132963020694608700A9C002C2F
:100370000DDD329D01236A4602A9280000F042FEED
:10038000002801D000F082FD641EF3D13295059C57
:10039000089D002D0FD0329E21780498B04704901C
:1003A000002801D100F072FD0D98401C0D90641CD6
:1003B0006D1EF1D13296302769460F700B9C002CD0
:1003C0000DDD329D01236A4602A9280000F01AFEC5
:1003D000002801D000F05AFD641EF3D13295059833
:1003E00008994418099D002D0FD0329E2178049859
:1003F000B0470490002801D100F048FD0D98401C42
:100400000D90641C6D1EF1D13296684607700C9CED
:10041000002C0DDD329D01236A4602A9280000F060
:10042000F1FD002801D000F031FD641EF3D13295BA
:1004300002A83821405C400700D460E620206946CD
:1004400008700198002800DC59E6019C329D0123C8
:100450006A4602A9280000F0D5FD002801D000F06E
:1004600015FD641EF3D1329549E61B487844683087
:10047000059000F0EAFC0E9D002D03D5200000F051
:100480001FFE09E02A000021200000F021FE0028C4
:1004900001D0001B00E02800089000F0D6FC349842
:1004A00000680268001D349908600020C0430021E4
:1004B000104002AA03C218A80590782100F0A9FCF8
:1004C00002A83B21415C002908D00024E4434B48AA
:1004D0007844FF30293017E7DC4500003A21405CC2
:1004E00062286AD0682819D06A2845D06C2806D0BE
:1004F00071284FD0742831D07A2821D06FE03498F9
:1005000000680168001D349A106000297AD1002427
:10051000E4433B487844FF301738F5E634980068E8
:100520000168001D349A1060002905D10024E443BD
:1005300033487844CA30E7E60D98088000F085FC1F
:10054000349800680168001D349A1060002959D160
:100550000024E4432A487844A630D5E6349800685D
:100560000168001D349A106000294BD10024E44337
:10057000234878448A30C7E6349800680268001D32
:1005800034990860002A13D10024E4431C487844BD
:100590006E30B9E6349800680268001D349908602E
:1005A000002A05D10024E443154878445230ABE6D4
:1005B0000D98C11703C200F048FC34980068016828
:1005C000001D349A1060002905D10024E4430C4832
:1005D00078442C3098E60D98087000F036FC34987A
:1005E00000680168001D349A106000290AD10024B7
:1005F000E44303487844083086E600BF6C440000BA
:10060000804400000D98086000F01FFC34980068DA
:10061000C21D072082433498026003CA349B1A60CB
:1006200002AA03C22022C80F04D007982D2118AABD
:1006300011540DE002A8008F284204D007982B2106
:1006400018AA115404E0C00704D5079818A90A5441
:10065000401C079018A8079940181390059027ADE3
:1006600002A803C816AA03C26846007820210143E5
:1006700068468170612909D00E98002801D50620AE
:1006800003E003D1672901D114980E9002A803C892
:100690000F0006187F417E15FF17BBA20CCA9F42B0
:1006A00012D1964210D10903020D11430003002913
:1006B00001D1002808D003200890613C1A2C19D3DE
:1006C000244979448E3110E002A803C80800410093
:1006D0004915994212D1000310D103200890613CC2
:1006E0001A2C21D31C4979446E310322139800F04F
:1006F00015FDAAE3194979446231F6E701AA02A877
:1007000003C800F018FD02AA03C268468078612879
:1007100013D1059830210170811C05916946097833
:10072000612905D1782104E00D4979443231DCE7B3
:10073000582141700798801C079002A803C894A212
:100740000CCA02400B400DD1002A0BD10024002618
:1007500063E100BF684300006C4300005C4300009D
:100760006043000068468078612800D096E00E98CB
:10077000002801D5212000E0401C1390139F7F1C0E
:1007800016A803C80022002300F0EAFC02A830C823
:1007900002D28020000645400198001F019027A941
:1007A0000A7027A8461C002F31DD200029000022F6
:1007B00080235B0300F0EDFC29D81C2200F002FD31
:1007C00004000D0000F036FD1590FF1F002F09DD1D
:1007D00000F06AFD02000B002000290000F0D1FDAE
:1007E00004000D00F01D0721159A002A0ADD491E9C
:1007F00008D4401E13071B0F03701211F5E7401EAB
:1008000000220270491EFAD5C61D002FCDDC27A894
:100810003199711A27AA551C139A0C00914200DDD8
:100820001400002C33D48C4205DA411C095D0829E0
:1008300001DB0F2100E00021220027AB9B1801E023
:10084000641E5B1E521E1E788E42F9D00F2904D101
:10085000411C895C491C401C8154002A04D527ADE9
:10086000641C0198001D0190611E10D46A1868462E
:10087000007813783033DEB23A2E01DBC318C6336A
:100880001370491E521E0029F3D5694608700E9850
:10089000002800D4C0E0601E0E90BDE016A830C84D
:1008A0006D006D0801986B4948436B4900F0E0FD0D
:1008B000019007200199401A002805DD0200200060
:1008C000290000F079FB0AE042420020634900F071
:1008D00073FB02000B002000290000F0F8FD6A46BF
:1008E0009278662A02D1019A0A3200E006220E9B13
:1008F0009A18142A00DD142227AB30241C705C1CCB
:1009000002E016A803C8139A002A45DD16AB03C3FC
:10091000139216A803C800F09FFC159006460834F1
:10092000042530000A2100F0B7FD0F0030000A2135
:1009300000F0B2FD06003037601E077030000A215B
:1009400000F0AAFD0F0030000A2100F0A5FD06000E
:10095000A41E303727706D1EE3D108341398083871
:1009600013900028CDDD159800F08EFC02000B00DE
:1009700016A803C800F005FD0022394B00F008FE60
:1009800016AA03C2C5E700BFFFFFFFFFFFFFFFFF7F
:10099000FFFFFFFFFFFFFF7F3198201A27A94D1CA3
:1009A00004E0401E0199491E01916D1C29783029EF
:1009B000F7D069468978662902D10199491C06E079
:1009C00069468978652901D1149900E000210E9AC1
:1009D0005418A04200DA441E002C1DD4844204DACC
:1009E000285D342801DD392100E030212200681E15
:1009F000831801E0641E5B1E521E1E788E42F9D0E1
:100A0000392902D1A95C491CA954002A04D5050042
:100A1000641C0198401C0190019E13956846007863
:100A20006946487000F096FE406A00786946087092
:100A30000E9D20B2002804DC149C05487844103038
:100A400013906846807866280CD1761C24E000BF9D
:100A50007840000097750000A08601000000F03F7C
:100A600084D7974168468078672846D130B2032101
:100A7000C943884247DBA84245DA761C02A8008FAA
:100A80001299C0B2084203D120B2A84200DC05008E
:100A900030B22D1A00D5002537B2002F00DDBAE0A4
:100AA0000898411C08913021059A1154002D05DC4D
:100AB00002A8008F1299C0B2084206D00898411CC3
:100AC000089169460978059A11547842854200DAFE
:100AD0006E4236B270420B90AD1920B2854200DAF8
:100AE0002C0024B20994220013990598089BC01881
:100AF00000F014FB281B0C90DAE06846407861286F
:100B000018D170201BE020B2A84206DA02A9098F92
:100B1000129AC9B2114200D105006D1E00D5002500
:100B200068464078672802D16520694607E045207D
:100B3000694604E068464078412801D15020487059
:100B40000898411C089113990978059A1154139833
:100B5000411C002D05DC02A8008F129AC0B2104281
:100B600019D00898421C08926A461278059B1A54BC
:100B7000002D10DD641E20B2854200DA2C0022B266
:100B80000598089BC01800F0C9FA24B2089800190B
:100B90000890281B0B9005980899401869464978D9
:100BA000017031B2002903D42B214170871C03E06E
:100BB0002D224270871C4E42002412AD300008E006
:100BC0000A2100F055FC15AA03C229701598641C6F
:100BD0006D1C00B20028F3DC012C08DC684640786C
:100BE00020210143652902D1302038707F1C002C60
:100BF00009D1302038707F1C07E0641E12A8005D08
:100C0000303038707F1C002CF7DC059808994018AC
:100C1000381A09904CE020B231B288421DDA22B273
:100C200013990598089BC01800F078FA24B2089828
:100C300000190890391B0B91002D05DC02A9098FC2
:100C4000129AC9B2114206D069460978059A115420
:100C50000998401C09900C952AE032B21399059826
:100C6000089BC01800F05AFA0898C0190890A41BF5
:100C7000002D05DC02A9098F129AC9B2114205D0D4
:100C8000411C089169460978059A115420B28542A1
:100C900000DA2C0022B21398C1190598089BC018DD
:100CA00000F03CFA24B2089800190890281B0B9019
:100CB00002A83821405C14210140102900D0C4E072
:100CC0000798089940180B994018099940180C99F1
:100CD00040180F99884200DBB7E0081A0A90B4E088
:100CE00002AA3A20105C622808D068280ED06A2830
:100CF00014D06C281DD0712810D01AE034980168E7
:100D00000868091D349B1960C0B218E03498016866
:100D10000868091D349B196080B210E0349800689F
:100D2000C31D072083433498036003CB349C2360A6
:100D300006E0349801680868091D349B1960002199
:100D400002AB03C3108F1299C0B208425BD002A855
:100D500003C8002901D1002855D068460078202119
:100D6000014378294FD1079818A930220A54401C12
:100D7000421C07926A4612780A5444E002AA3A20BA
:100D8000105C622808D068280ED06A2814D06C281D
:100D90001DD0712810D01AE0349801680868091D28
:100DA000349B196040B218E0349801680868091D46
:100DB000349B196000B210E034980068C31D07200E
:100DC00083433498036003CB349C236006E034985B
:100DD00001680868091D349B1960C11702AB03C381
:100DE000002902DA07982D2109E0108F284202D04D
:100DF00007982B2103E0C00705D50798202118AAE2
:100E00001154401C079018A807994018059068468F
:100E1000017802A800F03EF817E014980790349883
:100E200000680168001D349A106018A801700CE079
:100E300014980790252018A90870684600780028A3
:100E400003D007956846007848700F980799401AB4
:100E50000A99401A0899401A0B99401A0999401AA0
:100E60000C99401A019002A83821405C400701D536
:100E7000FFF765FA2020694608700198002801DC18
:100E8000FFF75DFA019C329DFFF74CFA0020C0434A
:100E900035B0F0BDF2B586B0040025696F2901D1E7
:100EA000082707E00846FFF70BF9782801D00A2742
:100EB00000E010273C2603CC083C04AA03C26A4683
:100EC000127E642A03D06A46127E692A09D100295B
:100ED00007DA04A803C800220023121A8B4104A8D1
:100EE0000CC004A803C800290DD100280BD1206B29
:100EF000002808D1082F3DD13820205C000739D5C3
:100F00003B26302035E00294009504A830C8761EB8
:100F10000196200029003A00FB1700F023FC303234
:100F2000D0B23A280DDA00988255200029003A0004
:100F3000FB1700F017FC04000D0007D1002C05D1B1
:100F40000AE06846007E8218AF32ECE70298C0687B
:100F5000009989198842DAD3029C009D082F09D193
:100F60003820205C000705D5A85D302802D0761E09
:100F70003020A8553C20801BA061A919E160216B9D
:100F8000884206DA081A2062208F1C490140218716
:100F900010E000290ED53821615C14220A40102A85
:100FA00008D1616B6269891A226A891A081A0028B5
:100FB00000DD206207B0F0BDF8B50026104F040038
:100FC0000D00009214E0C00707D532003B0020005E
:100FD000290000F0DDFA04000D0000984010009098
:100FE0003000390032003B0000F0D2FA06000F005A
:100FF00000980028E7D120002900F4BDEFFF000091
:1010000000002440F8B50024002B11D007000E008A
:1010100014001D002178B068B847B060002809D0DE
:10102000F06A401CF0620020641C6D1EF2D10400C6
:101030002000F2BD0020C043F9E70368002A03D175
:101040005B1E0360080070471978002902D1002058
:10105000C0437047591C016018787047C9B20278C4
:101060008A4203D0401C002AF9D100207047026850
:10107000531C03601170704780B5002801D100BF78
:1010800007A006490B68002B03D0222200219847B5
:1010900001E000F0A5FB222002BD00009801002025
:1010A000636F6E73747261696E742068616E646CD4
:1010B00065723A20626164206D65737361676500D3
:1010C000431C0178401C0942FBD1C01A70472E0016
:1010D000C9B2521E05D30378401C8B42F9D1401E81
:1010E000704700207047430070B4103A03D378C9AA
:1010F000103A78C0FBD2530701D318C918C001D5E4
:1011000008C908C0D20704D30B880380891C801C3F
:10111000002A01D50B78037070BC70478B0701D192
:101120008307E1D0124205D00B78491C0370401CA4
:10113000521EF9D1704710B5144600F002F8226033
:1011400010BD4A0053155B1C08D0520D06D0032376
:101150001B02FE3AD21A1305C91A704700227047C3
:1011600030B4012464054D00EC420BD85D00EC4224
:1011700008D80C001C4364000443144304D2994271
:1011800000D1904230BC7047FCD08B42FAD18242F1
:10119000F8E730B4012464054D00EC420BD85D0043
:1011A000EC4208D80C001C4364000443144304D2EE
:1011B0008B4200D1824230BC7047FCD09942FAD1B8
:1011C0009042F8E7124217D40023DB435B0D9C46A4
:1011D0004B005B0D06D0634504D09B18634502D2DB
:1011E0001205891870476246090D11430905002050
:1011F00000B500BF00BF00BD52424B005B0DF1D0F7
:101200005B1C5B05EED25B0D934102D91205891A76
:1012100070470BD10B031B13C90FC907821C002099
:1012200043411343E4D912051143E1E7C90FC9074C
:101230000020DDE7F4464A1805D200F00FF801D58A
:1012400080174008604700F009F80121C90788426B
:1012500000D90800404260474A1812D2400DC90226
:1012600008430121C9070843520D40210901521AC0
:10127000521C06D452421F3201D4D0407047C017CE
:10128000704700207047FEE7010042221201D21E83
:10129000004207D002D4521E0018FCD5C10A4005F6
:1012A00012058918704700000100EED54042F4464F
:1012B000FFF7EBFF0122D20711436047F0B401258D
:1012C000ED070F005F404FD48B4200D1824205D919
:1012D0008446100062468C4619006346DF184C189D
:1012E000640D7F0D3AD0661C760537D0E61B352E8F
:1012F00034DCDB022B43DB0A0C0DC9022943C91283
:10130000202E0DDB1700203E06D01F00F741F340D2
:101310005F400026012A7741C01871410DD217E0C5
:101320001700F741F2405740F3415A40B340F340B1
:101330005A400026801859410AD3A21C52050FD0EA
:10134000C207012F724117004008CB071843490814
:10135000641C24054208AF4170416141F0BC7047F4
:10136000641C21050020F9E76B4010E06B40ABE7FF
:10137000F742F3D1E943F1E72442EFD10020002105
:10138000ECE7F0B40125ED070F005F40EED40C0050
:10139000871A9C4105D2C01BA141D2196341694003
:1013A0006B40AE0ADF184C18F442E1D2640D7F0D99
:1013B000E2D0E61B362ED1DCDB022B43DB0AA4464F
:1013C0000C0DC9022943C90A012E28DC04D1D60715
:1013D0005208DF073A435B08EF0A76429041994191
:1013E00014D039423BD1B61940414941761C3942AB
:1013F00004D1761C001849413942FAD0B9436746F6
:10140000B74208D9A41B24052143A7E70042EAD12B
:101410003642E8D1A2E7E40AE10700209EE7202E49
:101420000BDD203E1F00F340F7415F40012A002200
:1014300057417E42984191410BE01700F741F2403D
:101440005740F3415A40B340F3405A407E429041E6
:1014500099410A0303D2641EB6194041494100274D
:10146000641E24054208AE4178416141F0BC7047DA
:10147000CA0F00D0494203105A400DD004B500D322
:10148000404200F009F8009AD20701D349421242C3
:1014900000D5404204BD0000094214D088420FD359
:1014A0000122030C01D100041204002300185B4147
:1014B0008B4200D35B1A5241F8D3190010007047D9
:1014C00001000020704708B500F090F908BDF0B4A5
:1014D0000E005E400125ED072E40B446AE0ADF182F
:1014E0004C18F4423BD2F74241D2640D43D07F0DF9
:1014F00038D0E41BC902DB0229432B43CF0ADB0AA5
:101500000600B61A9F4104D2641EB6197F41B61870
:101510005F416812800D24180018844222DCE80C18
:101520000021B6197F41B61A9F4102D2B6185F4119
:101530003F1C40414941F4D3241C21DD2405B61948
:101540007F41B61A9F4105D33743C607374300266C
:10155000012F7041614166463143F0BC7047FCD1B8
:10156000F74205D20020C14349054908F3E704D0FA
:101570000020C143F1E77F0DFAD000206146ECE77F
:101580002442FAD1401C61410F03F6D30020E2E768
:10159000F0B50E005E400125ED072E40B446AE0AC0
:1015A000DF184C18F44208D2F7420ED2640D01D075
:1015B0007F0D12D100206146F0BD05D1F74201D860
:1015C0007F0D05D10020C143F0BDFBD1640DF9D0E2
:1015D0000020C143490549088FE0E419C902DB0234
:1015E00029432B43DB0A460DC00231438E4630B4FB
:1015F00087B295B27D432E0CADB2140C7C43A41976
:10160000260C240425439CB27C43A419190C79436D
:10161000270CC919A4B20F043C43090C000C97B263
:1016200047432E0CBE193543ADB2170C4743360C59
:10163000BF19A6B2BF193E043543240C3E0C36191F
:101640009FB24743BF19BCB23E0C89191F0C4743D8
:101650007F183E043443390C704680B297B247433A
:101660002E0CBE193543ADB2170C4743360CBF19CB
:10167000A6B2BF193E043543240C3E0C36199FB266
:101680004743BF19BCB23E0C89191F0C47437F1852
:101690003E043443390C77463F0C90B278432E0C0D
:1016A00080190604ADB22E43050CA0B22D18120C01
:1016B0007A435019020C80B2240CA4189AB27A43CF
:1016C000121914042043120C89181B0C7B43C918EF
:1016D00030BCEF0A394203D1B61940414941641E7A
:1016E0006F12BF0DE41B0BDBFF19BC4211DA24059E
:1016F00000274208AE417841614166463143F0BD62
:10170000641C05D1401C6141CF0201D34908F4E7B4
:1017100050E75DE7613807E005E0010061391A290B
:1017200001D20120704741381A288041C00F70470C
:1017300001000939052901D3202801D10120704772
:1017400000207047010041391A2900D2203070472B
:10175000024870470248704700000000480000201F
:101760001000002012422DD0994231D970B50025C9
:101770001B4209D00C00002112E01100FFF78CFE83
:101780000A000021002370BD0942F6D00024012682
:1017900049186441944200D3A41A7641F8D3310029
:1017A000012601E0764109D2001864416D41A41A76
:1017B0009D41F7D2A4185D41B619F5D3300022003F
:1017C0002B0070BD1B42CFD108B500F011F808BD49
:1017D00001D19042CAD202000B00002100207047C4
:1017E00080B5012000F006F801BDFEE77047FEE776
:1017F0007047FEE780B500BF00BF024A1100182005
:10180000ABBEFBE72600020080B503000800C168FC
:10181000491CC160012200210068984702BD80B5C3
:10182000030008000269521E0261C168491C002AB7
:10183000C16000D4EEE70020C04302BD10B5030034
:1018400008001100C268521E0024E443A142C26095
:1018500002D000220068984710BD0000F8B59EB085
:101860000024E443019119680291249901ABD977CE
:101870000021049103920AA91F311D9107000994C8
:1018800013E00498401C0490012200210198B847FD
:10189000040000F0E1FE0028F3D1220001A9380085
:1018A000FFF7CCFF0398401C03900398007800F0EA
:1018B000D3FE0028E5D1039C2078002805D10999A2
:1018C000884200DA08001FB0F0BD252808D1601C4E
:1018D000039001782A2914D1411C0391007811E06A
:1018E0000498401C0490012200210198B8472178F7
:1018F0008842D7D0020001A93800FFF79FFF0020DF
:10190000DDE7002001A90877002006900BE006988B
:10191000A14A904205DA8200101840004018303881
:101920000690601C0390039C2178080030380A2838
:10193000EDD30020C0430790217838487844FF3029
:101940002338FFF78BFB002802D0601C039020781F
:1019500001A9487701A8407F682807D1039801783A
:1019600068290DD1622101AA517707E06C2807D1BF
:10197000039802786C2A03D171224A77401C0390A5
:1019800003980178264878449630FFF767FB0028D3
:1019900010D10498401C0490012200210198B847FE
:1019A000040000F059FE0028F3D1220001A93800FC
:1019B000FFF744FF002001A98877039800782538B5
:1019C00043D01C3800D1BAE0001F022800D8B6E08E
:1019D000133800D172E3C01E24D0801F00D1AEE0C6
:1019E000801E01D100F001FD401E00D166E3401EC3
:1019F000022800D8A3E0001F00D15FE3401F4DD0B4
:101A0000401E012800D859E3001F44D0801E00D199
:101A100054E3C01E00D151E300F0F1FCF4310000AA
:101A2000F83100000022D24300F0E0FC099E249926
:101A3000002901D100F0E5FC2221C943884201D0F0
:101A400000F0DFFC0020C0433DE70498401C0490F8
:101A5000012200210198B84725280DD109980028B6
:101A600001D50020099001A8807F002800D119E746
:101A70000998401C099015E7099E0400220001A95D
:101A80003800FFF7DBFE0020C043844201D100F0A4
:101A9000B8FC00F00BFC012200F0A8FC01A8007FBC
:101AA0000028DBD101A8407F622838D0682815D0F3
:101AB0006A2823D06C2801D071281FD002980168B1
:101AC000001D0290002906D10024E44333487844E5
:101AD000CA3000F086FC04980860BFE702980168ED
:101AE000001D0290002906D10024E4432B487844CD
:101AF000AA3000F076FC04980880AFE702980268EC
:101B0000001D0290002A06D10024E44323487844B3
:101B10008A3000F066FC0498C11703C29EE7029861
:101B20000168001D0290002906D10024E4431B48EF
:101B30007844683000F055FC049808708EE70698E9
:101B4000002800DC164805900EAC3800FFF767FE51
:101B500000210A912B2801D02D2807D10EA9087049
:101B60000EA8441C01A93800FFF759FE0A250021E0
:101B70006A461170302820D101A93800FFF74FFEC6
:101B800020220243D2B2782A0CD001216A46117079
:101B900069460978EFE000BFCBCCCC0C8430000064
:101BA000FFFFFF7F3020207078206070A41C01A907
:101BB0003800FFF734FE1025EAE720260100314304
:101BC000CAB26E2A48D10020694648706E20207043
:101BD000651C01A93800FFF722FE04003043C0B2A3
:101BE000612800D0AAE128706D1C01A93800FFF718
:101BF00016FE04000643F6B26E2E00D09EE101A947
:101C00003800FFF70CFE282806D0020001A9380092
:101C1000FFF714FE6E20A6E00598401E059005D53E
:101C20000498401C04900024E44304E001A9380017
:101C3000FFF7EAFD04002600200000F016FD002852
:101C4000EAD1303C0A2CE7D35F2EE5D03400292CB2
:101C500000D073E16E2086E0C9B2692900D09FE010
:101C600000206946487069202070651C01A9380071
:101C7000FFF7D5FD04003043C0B26E2800D05DE10F
:101C800028706D1C01A93800FFF7C9FD040030431E
:101C9000C0B2662800D051E101A93800FFF7BFFDAE
:101CA00001003143C9B2692905D0020001A93800F9
:101CB000FFF7C4FD56E00599491E05910498401CA4
:101CC0000029049005D4012200210198B84704009E
:101CD00001E00024E44320003043C0B26E2800D06D
:101CE0002CE10599491E05910498401C0029049097
:101CF00005D4012200210198B847040001E0002426
:101D0000E44320003043C0B2692800D016E10599B1
:101D1000491E05910498401C0029049005D4012215
:101D200000210198B847040001E00024E4432000AA
:101D30003043C0B2742800D000E10599491E0591D6
:101D40000498401C0029049005D401220021019828
:101D5000B847040001E00024E4432643F6B2792E9C
:101D600000D0EBE0662028706D1CF0E001A938007F
:101D7000FFF74AFD0121302809D10598401E059042
:101D8000F4D50498401C04900020C043F2E76A4652
:101D9000117069460978002902D030212170641C35
:101DA0000A9E6A4655701278002504E001A93800A1
:101DB000FFF72AFD01220021C943884225D00100F6
:101DC000CBB2612B01DBA93109E0412B01DBC93129
:101DD00005E0303B0A2B01D2D03100E0FF216B46F9
:101DE0005B78C9B2994210D2242D03DA2070641CAA
:101DF0006D1C00E0761C0598401E0590D6D5049811
:101E0000401C04900020C043D4E70C970B940400BE
:101E10000A96684602700D95FFF79CFC406A0078B0
:101E2000844215D10B9804700B98401C0B900599B7
:101E3000491E05910498401C0029049006D40122F3
:101E4000002101980C9B9847040001E00024E44322
:101E50000D98002828D10C9E20000A9D694609781B
:101E600004E001A93000FFF7CFFC012130280AD19E
:101E70006D1E0598401E0590F3D50498401C0490F3
:101E80000020C043F1E70C9604000A9568460170F3
:101E90000A98002808D530200B9908700B98401C30
:101EA0000B900A98401C0A900C9F0B9D21006846DD
:101EB000467800780D9C05E001A93800FFF7A4FCE6
:101EC000010001200022D243914222D00A00D3B265
:101ED000612B01DBA93209E0412B01DBC93205E0AE
:101EE000303B0A2B01D2D03200E0FF22D2B2B24204
:101EF0000FD2242C09DB0598401E0590DCD50498F0
:101F0000401C04900020C043DAE729706D1C641C5B
:101F1000F1E70C0069464E700870684600780028AA
:101F20000CD02020204349780A2941D1C0B265282D
:101F300041D003E02500040068460170220001A999
:101F40003800FFF77BFC68460078002825D0002089
:101F5000287001A8007F002800D07FE568464078FF
:101F60000A2800DD7FE000230A9A00210EA800F075
:101F700085FC01AB01229A77029A5B7F6C2B00D023
:101F80007EE01368121D0292002B77D10024E443F7
:101F900047487844FF301B3023E2099E0EA8854253
:101FA00000D083E10020C043844200D07EE128E2DB
:101FB000C0B27028C2D12C706C1C0598401E0590D0
:101FC00010D40498401C0490012200210198B847C5
:101FD0002B2801D02D2812D12070641C0598401E9A
:101FE000059005D50498401C04900020C04306E0ED
:101FF0000498401C0490012200210198B847002554
:10200000002104E001A93800FFF7FEFB0121302880
:1020100009D10598401E0590F4D50498401C049001
:102020000020C043F2E70A0008D030222270641C6E
:1020300004E001A93800FFF7E7FB01210200303A74
:102040000A2A00D376E7082D09DB0598401E059083
:10205000EFD50498401C04900020C043EDE72070A9
:10206000641C6D1CF1E70023002200210EA800F083
:1020700005FC0A9A9200FFF7A5F87AE703C3EDE49E
:102080004C2B0AD11368121D0292002BF6D10024AA
:10209000E443074878441830A3E11468121D029203
:1020A000002C07D10024E44301487844801C98E1C7
:1020B0008C2B000000F07CFC2060CFE40698002808
:1020C00001DD401E00E010480AAC0590002804988D
:1020D0001CD4401C0490012200210198B8472B28F1
:1020E00001D02D2816D10AA908700AA8441C059908
:1020F000491E05910498401C0029049008D401222F
:1021000000210198B84705E0FEFFFF7F401C0490C6
:102110000020C043002503990978642911D075294E
:102120000FD0692901D100260CE06F2901D10826C2
:1021300008E0702903D020220A43782A02D1102611
:1021400000E00A26302834D10120009001250598AE
:10215000401E0590049806D4401C049001220021E2
:102160000198B84703E0401C04900020C04320229F
:102170000243D2B2782A18D1002E01D0102E21D1DC
:1021800010260598401E0590049807D4401C049022
:10219000012200210198B847002513E0401C04905B
:1021A0000020C043009000254EE0002E0AD10826F2
:1021B00008E0002E36D10A2634E001A93800FFF7E6
:1021C00023FB009D302809D10598401E0590F4D5C9
:1021D0000498401C04900020C043F2E7290621D057
:1021E00030212170641C1DE0412B01DBC93205E068
:1021F000303B0A2B01D2D03200E0FF22D2B2F1B242
:102200008A4220D21D998C4216D30598401E059013
:1022100001250028049812D4401C049001220021BA
:102220000198B8470021C94388420CD00200D3B2BC
:10223000612BD9DBA932E1E72070641CE5E7401C83
:1022400004900020C0430090009A01A93800FFF7D5
:10225000F5FA2D0620D00020207001A8007F00286C
:1022600001D0FFF7FBFB03980078642871D0692840
:102270006FD0320000210AA800F09AFC01AA0123C5
:102280009377039B1B78702B15D1029A1368121D4C
:102290000292002B0CD1A0E0099E00990AA884426A
:1022A00004D10020C043814200D1AAE00020A8E070
:1022B0001860FFF7D3FB527F622A3AD0682A11D008
:1022C0006A2A26D06C2A06D0712A2AD0742A19D0FC
:1022D0007A2A10D036E0029A1368121D0292002B5F
:1022E000E6D17AE0029A1368121D0292002B74D094
:1022F0001880FFF7B3FB029A1368121D0292002B9D
:10230000D6D16AE0029A1368121D0292002BCFD137
:1023100063E0029A1368121D0292002B00D0ADE612
:102320005BE0029A1368121D0292002B00D0A5E612
:1023300053E0029A1368121D0292002B4DD01870C0
:10234000FFF78CFB029A1368121D0292002BAFD18B
:1023500043E0320000210AA800F083FC01AA012317
:102360009377527F622AE4D0682ABBD06A2A1DD0B4
:102370006C2A06D0712A21D0742A10D07A2A07D06C
:1023800024E0029A1368121D0292002B90D124E0DF
:10239000029A1368121D0292002B89D11DE0029A45
:1023A0001368121D0292002B82D116E0029A136864
:1023B000121D0292002B00D060E60EE0029A136814
:1023C000121D0292002B00D058E606E0029A136814
:1023D000121D0292002B00D06AE70024E44300BFE4
:1023E00095A0FEF749FE201A03E00022380000F015
:1023F00031F8002801DDFFF731FBFFF717FB002064
:10240000099E002E01D5FFF75EFA3000FFF75BFA58
:10241000C9B206E0994202DB83788B4215DAC01C10
:10242000D21E032A08D343782D2B0378F2D08B4297
:102430000BD0401C521EF4E7002A08D003788B42D0
:1024400003D0401C521EF9D101E00120704700204A
:1024500070470000F8B588B007000E001500002096
:10246000049069460871002D27D5B068401CB06003
:1024700001785E2903D1411CB160007800E00020A2
:102480000290B46820785D2801D1601C00E0200033
:102490005D21FEF7E3FD002800D1B2E0011B0091B1
:1024A000B0600098032808DB821E2D21601CFEF717
:1024B0000FFE002801D0012004907069002804DC80
:1024C000002D01D0534800E001203061307F00280A
:1024D0000DD170680168001D70600691002906D159
:1024E0000024E4434A487844FF30273011E0307F2D
:1024F000002817D1F07F002814D071680868091DE2
:10250000716080210906884207D30024E44300BF9C
:1025100041A0FEF7B1FD201A78E0B169884200D9E8
:102520000800B061079703950594069F68460579F2
:1025300000E002253169491E3161F068401C002924
:10254000F06002D50024E44342E00122002130681B
:10255000079B984704000020C043844238D003986A
:1025600000280CDC26D50498002802980BD00028FF
:10257000009A19D021000598FFF74AFF0AE02000D1
:1025800000F06AF806E00028009A06D021000598BD
:10259000FEF79EFD00281BD10CE021000598FEF7F8
:1025A00097FD002814D005E021000598FFF730FFC3
:1025B00000280DD0307F0028BBD10125B06900284C
:1025C00006D03C707F1CB577B069401EB061B0E7A3
:1025D000079822003100FFF731F90398002801D055
:1025E000022D08D0022D10D00020C043E9070DD4E1
:1025F000844206D10AE0307F002806D1B069002865
:1026000001D1002002E000203870012009B0F0BDA7
:102610007C260000FFFFFF7F7363616E665F733A85
:10262000206261642025632C2025732C206F72208A
:10263000255B2073697A65007363616E665F733A28
:102640002062616420696E746567657220617267DB
:10265000756D656E7400000010B50400FFF778F822
:1026600001002000096A884710BD10B50400FFF77B
:102670006FF8010020000969884710BDFBB584B0E0
:10268000002A00D1F0E004A803C87AA430CC0440AA
:102690000D4002D1002C00D1E6E0080041004915B0
:1026A0000023DB43994202D1000300D1DCE000208B
:1026B000B749002A5AD554422B4D7D44AA350826E5
:1026C0000AE0E20705D502000B0003CD083DFEF746
:1026D0005FFF64080835761E002C01D0002EF0D173
:1026E00006000F006A4604A803C8FEF724FD009DFB
:1026F00032003B00FEF7EBFE2A00FEF763FD04AA62
:1027000003C25CA6C0CE04A803C8394002D1002889
:1027100000D18EE004A803C8080041004915B14269
:1027200002D1000300D184E0002C00D181E004A894
:1027300003C86A46FEF7FFFC009D96A20CCAFEF78E
:1027400027FF2A00FEF73EFD32003B0002400B400F
:1027500001D1002A6BD04B005B15B34201D10A03B3
:1027600065D0641E63D0E4E7F023000061DD404DD6
:102770007D44FF35ED1E0826012714003C4205D09C
:1027800002000B0003CD083DFEF702FF6410083580
:10279000761E002C01DD002EF0D1260004000D0075
:1027A0006A4604A803C8FEF7C6FC009F22002B005F
:1027B000FEF7EEFE3A00FEF705FD04AA03C22DA0C7
:1027C00003C802AA03C204A80CC802A803C8104088
:1027D000194001D100282CD004A803C80800002704
:1027E000FF4341004915B94201D1000321D0002E19
:1027F0001FDD04A803C834006A46FEF79CFC009D58
:1028000066A20CCAFEF7C4FE2A00FEF7DBFC02AA91
:102810000CCA02400B4001D1002A08D04B005B15C6
:10282000BB4201D10A0302D0641E002CE4DC04AADE
:1028300003C204A803C80FA20CCA02400B4001D176
:10284000002A08D00800410049150022D2439142D5
:102850000AD1000308D1069C00BF00BF002C03D0A2
:10286000206801210143216004A803C807B0F0BD1E
:10287000E8220000FFFFFFFFFFFFFF7FF9B587B0F1
:102880001500002B01D0002018600E00079C07A83F
:1028900000F0ECF90107CA0F05920821884304955E
:1028A00001282DD10220009001AB320007992000B1
:1028B00000F068FA050002D1002000211BE0029818
:1028C000FEF7F2FC022D16DB01AC08346D1E02008F
:1028D0000B0000203349FEF75BFE06000F00206866
:1028E000FEF7E2FC32003B00FEF7E8FC02000B00C2
:1028F000241D6D1EEDD1089B049A019C12192EE037
:1029000002282FD1009001AB32000799200000F07F
:1029100023FB050002D1002000211BE00298FEF7F6
:10292000C3FC022D16DB01AC08346D1E02000B0047
:1029300000201D49FEF72CFE06000F002068FEF760
:10294000B3FC32003B00FEF7B9FC02000B00241D73
:102950006D1EEDD1019AFEF735FC089B049AFFF736
:102960008DFE0CE0032802D10020104907E0042866
:1029700003D10020C043410801E000200021059A56
:10298000002A02D080221206514009B0F0BD00009A
:102990000000F03F436FAC642806C80A3CBF737F59
:1029A000DD4F157565CDCD410000B0410000F07FD1
:1029B000012252054B18DA4201D9581570475B0DB8
:1029C0000722D2019B1A10D9FF2B1DD2DB05012251
:1029D000D2070A4013430903020D1143490AC200FA
:1029E000524100D9491CC81870470AD1800A0A030D
:1029F00002435212921C04D9D3070B40D00518434E
:102A00007047C80FC0077047C80F0002FF30C005ED
:102A10007047FEE7FCB589B00C001500002B01D013
:102A2000002119600490064600E0761C3078FFF71C
:102A300013FE0028F9D130782D2801D02B2803D19E
:102A400069460870761C02E02B20694608700194E4
:102A5000002D03D4012D01D0252D04DB002C64D0E2
:102A60000498206061E0002D0ADD102D16D1307829
:102A7000302813D170782021014378290ED10AE043
:102A80003078302801D00A2508E0707820210143F1
:102A9000782902D11025B61C00E00825089600E030
:102AA000761C30783028FBD00020002106AA03C213
:102AB00005963C4B7B44FF33133B28336C466370D5
:102AC000039506AB30CB06AB03C30290354F7F4472
:102AD000FF372D3F11E006A930C169464978401AF9
:102AE000C0B2029020002900039AD31700F050FBD7
:102AF000029C002524184D41761C307800F061FBC3
:102B0000039A010038002830FEF7E2FA0028E2D1EB
:102B1000039A0396029E08980399884208D1019867
:102B2000002802D00498019908600020002137E0B5
:102B300008460599401AB95C401A00281ED412DCD8
:102B4000F6B200272900A01BB9418D420BD301D852
:102B5000844208D3D317FEF705FE06AA0CCA994291
:102B600001D190420AD000BF00BF0A98002802D0CD
:102B700001200A9908600CA430CC09E0684600786E
:102B80002D2805D100200021001BA94104000D00C3
:102B90000198002802D003980199086020002900BC
:102BA0000BB0F0BD281F0000FFFFFFFFFFFFFFFF7E
:102BB00080B50023FFF72EFF04BDF7B50D001E0002
:102BC000002D00D16D460190044600E0641C207881
:102BD000FFF742FD0028F9D127782D2F01D02B2FA8
:102BE00006D1641C2078FFF737FD002801D009E0EA
:102BF0002B27029A330029002000FFF70BFF2A68D9
:102C0000944204D1019828600020002109E02B2F74
:102C100009D180231B0699420FD202000B0010003D
:102C2000190003B0F0BD2D2FF7D1012280231B0620
:102C3000994211D301D890420ED300BF00BF002E9D
:102C400001D0012030602D2F02D100201946E8E785
:102C50000020C0434108E4E700220023121A8B4100
:102C6000DDE780B50023FFF7A8FF04BDF1B582B012
:102C70000E0004680027002500E0641C2078FFF7A0
:102C8000EBFC0028F9D120782D2801D1082501E09E
:102C90002B2800D1641C2178202020220A43009692
:102CA0006E2A25D161780143612903D1A1780843B7
:102CB0006E2802D00298046815E0E41C2500042761
:102CC000287828280FD16D1C2E783000FFF7CDFC16
:102CD0000028F8D1303E0A2EF5D328785F28F2D0AC
:102CE000292800D16C1C0098002846D0046044E0DC
:102CF000692A26D1617801436E2903D1A178014365
:102D0000662902D00298046817E0E41C03272F43C9
:102D100021780143692910D1617801436E290CD1D2
:102D2000A1780143692908D1E1780143742904D1CC
:102D300021790843792800D1641D002E1DD034600C
:102D40001BE0302917D161780843782813D1A01CE3
:102D500001782E2900D1401C007801006139062934
:102D600006D301004139062902D330380A2802D29D
:102D7000A41C022700E001272F43029804603800BA
:102D800003B0F0BDF5B591B00D001900189A002000
:102D90000290D3009A182D2A00DD2D220860486089
:102DA0000027012301E06D1C01272C78302CFAD07C
:102DB0000026009305AC18920FE00A68521C0A60C6
:102DC0002A78302A07D0009805E0189B9E42F4DA52
:102DD000D032A255761C6D1C009F2A781300303B20
:102DE0000A2BF2D301910390FEF7B4FC2978406AD4
:102DF0000078814200D16D1C002E01980ED12978F7
:102E000030290BD10168491E01606D1C009FF6E757
:102E1000302901D0009903916D1C009F29780A0088
:102E2000303A0A2A09D2189A9642F1DAD031A155DD
:102E3000761C0168491E0160EEE701951899039A16
:102E40000397002A04D0621E525C521C631E5A541F
:102E5000050007E0601E805D002809D12868401C3D
:102E60002860761E002EF5DC02D100202070009E26
:102E70000398002860D00020049009243000092124
:102E8000FEF7F6FA641A20000921FEF7F1FA00298C
:102E900001D000980290029F0296049E18E0B800AC
:102EA000281801688A0051184900009A89180160A1
:102EB0000CE005A8805D009020000921FEF7D8FAFB
:102EC0000029ECD17F1C0098B9006850641C761C66
:102ED00002988642EDDB0297019800782021014399
:102EE000652929D1019800900198431C1C782B2C4E
:102EF00001D02D2C01D15B1C00E02B2400260021E9
:102F000009E0144EB14204DA8E0071184900091824
:102F100030395B1C012618780700303F0A2FF0D3A8
:102F200001932D2C01D148420100286840182860E7
:102F3000002E01D1009801901299002906D0039823
:102F4000002801D0019800E011980860029813B0A1
:102F5000F0BD00BF00E1F505F5B58FB01698002271
:102F60000392C200101A232800DD232000221A60D9
:102F70005A60002601E0491C01260C78302CFAD05A
:102F8000002400BF76A20092012202920D001F00D1
:102F9000169010E03868401C38600AE01699A1428B
:102FA000F8DB00BF74A1009A801A085C05A90855D7
:102FB000641C6D1C029E00BF69A016222978FEF7D2
:102FC00087F80028EAD1049701962700FEF7C2FB94
:102FD0002978406A0078814200D16D1C002F0BD106
:102FE0002C00049E019D2078302819D13068401EA5
:102FF0003060641C029DF6E72C00049E019D0FE0EA
:103000001699B9420ADB00BF5BA1009A801A085CDE
:1030100005A9C8557F1C3068401E3060641C029DA5
:10302000162221784EA0FEF753F80028E8D100942C
:1030300016980195B84218DA05A9095C072906DD3A
:1030400005A9491E095C491C05AA521E1154070016
:103050003068401C306008E005A8401EC05D0028B4
:103060000AD13068401C30607F1E002FF4DC03D191
:10307000002069460875029F306880003060019822
:1030800000285ED000200490072438000721FEF7B6
:10309000EFF9641A20000721FEF7EAF9002901D0B0
:1030A00002980390039D0397049F16E0A800301830
:1030B00001680901029A891801600CE005A8C05D49
:1030C000029020000721FEF7D3F90029EED16D1CF4
:1030D0000298A9007050641C7F1C03988742EDDBA6
:1030E00003950098007820210143702929D1009888
:1030F00002900098431C1C782B2C01D02D2C01D160
:103100005B1C00E02B240025002109E0134DA9429F
:1031100004DA8D0069184900091830395B1C012553
:1031200018780700303F0A2FF0D300932D2C01D1DF
:1031300048420100306840183060002D01D10298EB
:1031400000901099002906D00198002801D000981D
:1031500000E00F980860039811B0F0BD00E1F5059C
:1031600030313233343536373839616263646566FD
:10317000414243444546000000010203040506079E
:1031800008090A0B0C0D0E0F0A0B0C0D0E0F000098
:1031900030B4434351435D18010C0C00130C5C43E5
:1031A0002D1980B2434392B251430024C91864419F
:1031B00024040B04090C09195043C018694130BCA0
:1031C000704710B50400FEF7C3FA01002000896AB9
:1031D000884710BD8900401880214900425070473F
:1031E00000690840884201D10120704700207047E3
:1031F000F8B588B06B4601AA22A18B4800F058FBB5
:1032000000256C0003A8029001A8405D00F044F87E
:10321000029908536846405D00F03EF8029909198A
:1032200088806D1C012DECDD0025804CA54F01260A
:1032300000211020029A6B00D25A324201D0206045
:1032400000E020613980642000F020F80220206036
:10325000642000F01BF802202061642000F016F8C2
:1032600076003988491C88B21028E2DB6D1C042DD9
:10327000DDDB012525603980642000F007F8256139
:1032800009B0F0BD2532733A25327300002801E001
:1032900000BF401EFCD1704730280FD021D3322808
:1032A00010D00DD3342811D00ED3362812D00FD31E
:1032B000382813D010D3392812D07047844870476B
:1032C000F8207047834870478348704783487047A9
:1032D00083487047834870478348704783487047E6
:1032E000B048704780B579480068814843790279D1
:1032F00002A14D4800F0F0FA01BD00002530326413
:103300003A2530326400000010B56F4C032000F005
:103310002FFBA070022000F02BFB6070012000F05A
:1033200027FB207010BD10B50400A178012000F02B
:10333000F3FA6178022000F0EFFA2178032000F020
:10334000EBFA10BDF8B598489849086000249849F0
:103350000C70FFF7C7FFFFF7D7FF5B499548007870
:10336000012844D1944802780A235A434378D2185A
:10337000F03283780A256B43C5785B19F033057901
:103380000A26754340792D18F0358C488570D6B2E1
:10339000182E10DADEB23C2E0DDA521D1E33DEB2CC
:1033A0003C2E01DBC433521CD6B2182E00DBE832AF
:1033B0000126834F3E7002704370824A1378002BBF
:1033C00012D13C2313708A7803789A4207D14A7845
:1033D00043789A4203D10978EDB2A94204D0FFF7AD
:1033E000A2FF002000F024F872480470F1BD764876
:1033F0000278002A16D10222027048788B783C4A63
:1034000014799C4206D15479844203D194790D7881
:10341000AC4207D0137150710878907100212B488D
:1034200000F02CFBF1BD00007001002018000050DE
:10343000F8B52F4A117953799679234D5F4C0028BE
:1034400003D121786378A6780BE0AF78B94205D133
:103450006F78BB4202D12F78BE4202D0A9786B7838
:103460002E781171537196710021184800F006FBF7
:10347000A8782178884207D168786178884203D19A
:103480002878A178884202D02000FFF74CFFF1BDD8
:1034900003B581B001A84179022000F03DFA01A8EE
:1034A0000179032000F038FA07488178E1221201FF
:1034B0004A4341783C234B43D118007808184349CC
:1034C000088007BD9C0100209401002000280040D6
:1034D000FE7F0000B96F0000F96B0000F9380000B2
:1034E000E97B0000EF7F0000F8600000FF7F000034
:1034F00088010020F8B50026002401279625F9034D
:103500003348FFF76DFE002808D1324800780028C4
:1035100004D130490F7008242F480580F9032C4846
:10352000FFF75EFE012801D12A490E7002212848CA
:10353000FFF756FE00280AD128480078002806D157
:10354000264807700324FA204000234908800221FE
:103550001F48FFF745FE012801D1204806701E488C
:103560000688A027FF05802149013800FFF738FEB3
:10357000002801D106240FE0802109013800FFF75F
:103580002FFE002801D1042406E001211048FFF796
:1035900027FE002801D1052496260F48068020002A
:1035A000F2BD0000FF7B0000AAAA0000003000402E
:1035B000A6010020A8010020F400002090010020B6
:1035C000A9010020A5010020A4010020A0010020E5
:1035D00000040050AB010020A2010020AC0100203B
:1035E000F8B5A7480778A748007869460870A64844
:1035F00000780A25A54CA64EA64A1278012A09D0C1
:1036000007D3032A73D047D3052A00D1D2E000D2D2
:1036100097E032E1042F0ED0052F19D0062F02D0EB
:10362000082F11D027E000273079401CC2B2182A99
:1036300008DB002006E000273079401EC1B21829BF
:1036400000DB1720307116E000277079914911E0F6
:10365000002704228F4B1A706A46127819235A43A6
:103660005843130600D16422864B1A70020600D11B
:103670006420854908700120874908703679300038
:103680000A21FDF7F5FE207030000A21FDF7F0FE5B
:103690006170E570A570F0E0042F0CD0062F02D009
:1036A000082F1FD00FE000277079401CC2B23C2ABF
:1036B00008DB002006E000277079401EC1B23C29DB
:1036C00000DB3B207071012073490870767930006F
:1036D0000A21FDF7CDFEA07030000A21FDF7C8FEDB
:1036E000E170CAE0002703206A490870EBE76A48E6
:1036F0000078012816D1307900900A21FDF7B8FE34
:10370000207000980A21FDF7B3FE61707079009077
:103710000A21FDF7ADFEA07000980A21FDF7A8FE72
:10372000E17003E065702570E570A570082F07D182
:1037300053490F7003CEFFF7ABFE002757480770C1
:103740009BE0042F0DD0062F02D0082F20D014E0CC
:103750000027684600781930C1B264290BDD1920B2
:1037600009E0002768460078E730C2B2642A01DC2D
:10377000020600D1642043490870012046490870C0
:1037800040480678642E07D10920A070E0700DE053
:10379000002705203F49EFE730000A21FDF768FECA
:1037A000A07030000A21FDF763FEE1700B2020704D
:1037B0000C2061E0042F0BD0062F02D0082F1BD065
:1037C0000EE000271930C1B2642909DD192007E095
:1037D0000027E730C2B2642A01DC020600D164206F
:1037E0002949087001202C4A10700E78642E36D1B9
:1037F0000920A070E0703CE00020214908704E22B2
:1038000001212748FFF7E6FC64201E490978401A89
:103810001921FDF72DFE6946087064201A490978C0
:10382000401A1921FDF724FE1E490A781E4B1A6022
:103830005A603279083A0B2A02D26A46127800E0BE
:1038400002000A70694609780E4A11700C490F7817
:103850000121164A11700021104A1170C0E7300092
:103860000A21FDF705FEA07030000A21FDF700FED9
:10387000E1700B2020700D20607001480770F1BDD1
:10388000B1010020B3010020B40100207C01002020
:1038900088010020B2010020AE010020AA01002012
:1038A00000B00040B501002008B10040AD0100208B
:1038B0000DB4C0B50A0004A801900020009001AB2F
:1038C00003A9044878440C30FDF7C8FF029906B0FC
:1038D000084700BF67D7FFFF0CB418B583B00400DA
:1038E0000A0006A8029001940020009002AB01A9F2
:1038F000084878441E30FCF7E7FB0021019A11705C
:10390000002801D40198001B04B0019910BC03B039
:10391000084700BF5BD7FFFFF8B505000C0000F0BB
:10392000E2F9D02000F012FA284F80263E6000F025
:10393000FFF9280000F00AFA3E6000F0F9F92000D3
:103940000A21FDF795FD060120000A21FDF790FDF3
:10395000C9B27018C0B200F0F9F9802000043860D4
:1039600000F0E6F900F0D2F90A2000F03DFAF1BDCE
:1039700070B5060000F0B7F9D02000F0E7F9134C5D
:103980008025256000F0D4F9300000F0DFF92560D3
:1039900000F0CEF900F0A7F9D12000F0D7F92560AA
:1039A00000F0C6F900F0F5F90600256000F0C0F956
:1039B00000F0ACF930090A2148433107090F4018DB
:1039C000C1B23D2900DB6E20C0B270BD18040050AA
:1039D00070B5049C0568274E2E4031431204FF2524
:1039E0002D0415400D431902FF2212020A402A43FA
:1039F000E1B21143016070BD70B5049C45681E4E74
:103A00002E40490331432404FF252D0425400D4356
:103A10001902FF231B020B402B43D1B21943416013
:103A200070BD70B505000C000126CA2068625320E5
:103A30006862280000F0E0F8012816D0A86940214B
:103A4000884321680143A9612869C00BC003A168AC
:103A500001432961286967490140606800040843FF
:103A600028618020C043E8600026FF2068623000A3
:103A700070BD0000808080FFC00000FFF8B584B0FA
:103A800004000F00150001264020A169084000D164
:103A90002860CA20606253206062200000F0ACF809
:103AA000012841D02879039068790290A879019083
:103AB0002D68002F03D00090029B039A24E00A2176
:103AC000FDF7EAFC070101980A21FDF7E5FC3943FF
:103AD000C9B2009102980A21FDF7DEFC07010298A5
:103AE0000A21FDF7D9FC0B003B43DBB2019303989D
:103AF0000A21FDF7D1FC070103980A21FDF7CCFC50
:103B00000A003A43D2B2019B29002000FFF760FF70
:103B10008020C043E060A069800604D4200000F04B
:103B200090F8060000E00026FF206062300005B03B
:103B3000F0BDF8B584B00C0015000126002C06D1AC
:103B40006978CA0603D5EF220A400A326A70070074
:103B5000CA20786253207862380000F04DF80128BE
:103B600043D0A878039068780290EE782D78002CE6
:103B700003D00096029B039A27E030000A21FDF74C
:103B80008BFC0001019030000A21FDF785FC0198B3
:103B90000143C9B2009102980A21FDF77DFC06019C
:103BA00002980A21FDF778FC0B003343DBB2019346
:103BB00003980A21FDF770FC060103980A21FDF71E
:103BC0006BFC0A003243D2B2019B29003800FFF798
:103BD00013FF8020C043F860B869800604D4380021
:103BE00000F02FF8060000E00026FF207862300089
:103BF00005B0F0BDFFFF80FF81B00100FA2080001A
:103C000000900020CA68520619D40022D243CA602C
:103C1000CB685A06D20F0DE02A4A1268D20302D5A9
:103C2000009A521E0092CB685A06D20F009B002BBE
:103C300000D10120009B002B01D0002AECD001B064
:103C40007047F8B5FA25AD000095C168802319408A
:103C5000A023DB430B43C360C1688E06F60F194CEB
:103C6000010000200CE02668324002D0009A521E6B
:103C70000092CA689606F60F009A002A00D1012029
:103C800080225202009F002F01D0002EEBD10600AF
:103C900016D10095CE68B506ED0F0CE025681540ED
:103CA00002D0009D6D1E0095CE68B506ED0F009EFA
:103CB000002E00D10120009E002E01D0002DEDD05D
:103CC000F2BD000010E000E081B00100481E0029B4
:103CD00007D00421009100990029F6D00099491ECF
:103CE000F8E701B0704710B53E4C802020604020BE
:103CF00020600120FFF7E8FF802000042060012001
:103D0000FFF7E2FF8020C003206010BD10B5354CE6
:103D1000802000042060400820600120FFF7D4FFCD
:103D2000402020600120FFF7CFFF8020206010BDE1
:103D300010B52C4C402020600120FFF7C5FF8020EB
:103D4000C00320600120FFF7BFFF10BDF8B580253C
:103D50000826244CEF036946087027600120FFF70E
:103D6000B3FF68460078284201D0802000E0780048
:103D700020600120FFF7A8FF402020600120FFF70E
:103D8000A3FF6D10761EE8D127600120FFF79CFF8E
:103D9000F1BDF8B58024124FBC61002508268020B3
:103DA000C003B8610120FFF78FFF4020B8610120F8
:103DB000FFF78AFF8021380000F02AF8012800D19F
:103DC00025430120FFF780FF6408761EE7D180209D
:103DD000C003B8610120FFF777FFE8B2F2BD000031
:103DE000000400501804005038B5050000F016F823
:103DF00004000020C043854202D0044800782D18FA
:103E000000F00CF8001BA842FAD331BD00000020DE
:103E10000069084000D00120C0B2704701484068E6
:103E2000704700BF00000020010005D40121C0063A
:103E3000C00E81407B480160704710B5C200182356
:103E40001340FF249C40E2438907090E9940030078
:103E500004D475489B089B00C01806E0734B00070C
:103E6000000F083880088000181803681A401143B2
:103E7000016010BD81B06E490A6802430A6009689A
:103E800008400090009801B070474168694A0A40B4
:103E9000426081682A22914381607047F0B58FB0FB
:103EA000202107A800F0D4F81821684600F0D0F8C7
:103EB000614841690322914341618021C90102683F
:103EC0000A43026000680140069106980120FFF74E
:103ED000D1FF8020800000900226019600240294E9
:103EE0000394049401250595A027FF056946380031
:103EF00000F0B6F8A802009001960294039404948E
:103F000005956946380000F0ABF800211B20FFF74B
:103F100094FF1B20FFF788FF0794962080010890EC
:103F200009940A940B940C200C900D940E94434C1D
:103F300007A9200000F0E6F8EFF31080012181F3DB
:103F40001088A168C900C908A16080F31088EFF348
:103F50001080012181F31088A168394A0A40A260CB
:103F600080F3108820683749014021604AE0000052
:103F7000F0B58FB0202107A800F06AF81821684634
:103F800000F066F8802080022F490A6802430A6028
:103F900009680840069006980120FFF76BFF04208F
:103FA00000900226019602960024039404940125B1
:103FB0000595A027FF056946380000F051F8082054
:103FC0000090019602940394049405956946380084
:103FD00000F046F800211C20FFF72FFF28071149A9
:103FE0000860079496208001089009940A940B9425
:103FF0000C200C900D940E94144C07A9200000F096
:1040000081F800BF2000FFF740FF206805432560CE
:10401000E0698002FCD5E0694102C90FF8D00FB019
:10402000F0BD000000E100E000E400E01CED00E075
:1040300034100240FFB7FFFF40100240003801403B
:10404000FFFFFFF1FFFFFFDF3C1002400044004094
:10405000002200BF094202D0491E4254FCD17047E1
:10406000F8B504000800002146E02E0A350075432B
:1040700075437543666A2F017F1BBE43009F7D43D6
:104080003543656231E001258D40154033D02A006B
:104090006A4353009E18F3434668012E01D0022E56
:1040A0000BD1A6681E40876857433743A7606668F0
:1040B000AE43C7686F4337436760E6681E400769D1
:1040C00057433743E7604668022E0ED14669009693
:1040D000FF2DCAD816006E436E43256A3701BF1BF9
:1040E000BD43009F7E432E43266225682B404568D2
:1040F0006A431A432260491C02681300CB40C2D1B4
:104100000020F2BDFEB50400012001252268104008
:1041100055D10E0020682D490140B068084331692F
:10412000014370690843F1690143216060682849CF
:104130000140F06808436060A06826490140B0690A
:104140000843A0601F48844203D1032000F059F8BF
:1041500006E01D4884422BD1684600F046F80298DC
:10416000002825D07768002F22D0002531680C293F
:104170001ED2194A0906890D5158FDF78DF97908A3
:10418000F26980231B029A420CD14000401839008A
:10419000FDF782F980B2114901400007400F014349
:1041A000E16005E040183900FDF776F980B2E06083
:1041B000E06A0F218843316889B20843E062280031
:1041C000FEBD00000038014000440040F369FFEFED
:1041D000FFCFFFFFFFFCFFFFE04B0008F0FF0000F8
:1041E0003A4800684004400E704710B5040000F0E3
:1041F00032F8206000F058F8606000F05BF8A060D2
:1042000010BD01000020032900D0704780B530495F
:104210004A6D9207920FC0239B0213432D4A9B1AAB
:1042200004D05B1E05D05B1E08D00DE000F013F833
:1042300002BD096849050DD5274802BDC96D89072A
:1042400008D58020000202BD00F005F800F02CF82F
:1042500000F030F802BD70B51D4DA96807241E4E50
:10426000700838220A40082A1DD0102A13D1E968A4
:104270008907890F032900D10600FFF7B1FFE9681C
:10428000ED684643300009090C40611CFDF704F954
:10429000690F491C05E02A6830000121D20A144048
:1042A000A140FDF7F9F870BD0C4909680C4A0905F1
:1042B000090F04E0094909680A4A4904490F8900BD
:1042C000515CC906C90EC840704700000C1002407E
:1042D00000100240010003000024F4000810024016
:1042E000A04B0008D04C000881B06E490A68024318
:1042F0000A60096808400090009801B07047F8B55E
:1043000086B018216846FFF7A3FE2020FFF7ECFFD8
:104310000120FFF7E9FF0220FFF7E6FF01240094E8
:1043200001940025029503950495A026F60569469B
:104330003000FFF795FE022000900194029503954E
:10434000049569463000FFF78BFE10200090019421
:1043500002950395049569463000FFF781FE202001
:104360000090019402950395049569463000FFF78B
:1043700077FE4020009001940295039504956946CC
:104380003000FFF76DFE80200090019402950395A8
:10439000049569463000FFF763FE04200090019405
:1043A000029503950495404F69463800FFF758FE83
:1043B000A002009001940295039504956946380087
:1043C000FFF74EFEE00200900194029503950495DC
:1043D00069463800FFF744FE2003009001940295DF
:1043E0000395049569463800FFF73AFE6003009094
:1043F0000195049569463800FFF732FEA00300904E
:104400000195049569463800FFF72AFEE003009005
:10441000019402950395049569463000FFF720FE4C
:1044200000940195049569463800FFF719FE0220B3
:1044300000900195049569463800FFF711FEE003EE
:1044400000900195049569463800FFF709FEE002E7
:1044500000900195049569463000FFF701FE2003A6
:1044600000900195049569463000FFF7F9FD202082
:1044700000900195049569463800FFF7F1FD60034F
:1044800000900195049569463000FFF7E9FDA0030F
:1044900000900195049569463000FFF7E1FD07B0F3
:1044A000F0BD0000341002400004005089004018A4
:1044B0008021490042507047F8B500F0D5F800F06F
:1044C0005CF8FFF71CFF00F0E3F800F0FBF8FFF7E3
:1044D000E5FCFFF74DFD504F0124504E504D27E0B5
:1044E000802050490861FEF783FEFFF703F828702B
:1044F000317802460020082A06D1002913D14A4902
:104500000C703470287011E0032A22D147490968E1
:10451000890708D43978012918D138704E2204212E
:104520004348FFF7C3FF3078012801D1FFF758F85F
:1045300040480078002801D0FEF704FF3E4800788C
:104540000028CDD0802037490860CCE73C70752228
:10455000E5E7052AE7D10029E5D138490978491C62
:10456000CAB2042A00DB00213448017034490C70BF
:104570000078344908604860DAE738B5012207203E
:10458000C04331490B68034013430B600B685B0762
:104590005B0F012BFAD12D490B6814041C430C60EE
:1045A0000B689B03FCD50B6E1A430A6602220B6E46
:1045B0001340FCD0264B1C688D0D25431D60CB6835
:1045C000244C1C40244B2343CB600B68D4051C4374
:1045D0000C60CB68D4061C43CC600B689B01FCD5F7
:1045E0008B681E4C1C408C608B68184002438A60AC
:1045F000886838220240102AFAD18868184A024096
:104600008A60184800F0ACF8032000F0AFF80028EA
:1046100001D072B6FEE731BDAC010020AA01002036
:10462000B101002018000050B20100201004005019
:1046300000B00040A6010020AF010020B50100201D
:10464000AD01002008B100400020024000100240EF
:10465000007000408C80FF1F030C0020FFF0FFFF64
:10466000FF8FFFFF006CDC0210B5002407480168D3
:10467000820D0A430260032000F078F8002801D080
:10468000012401E000F098F8200010BD0020024055
:104690000748084901600849016000214160074955
:1046A0008160C1684907FCD105490160704700BFBE
:1046B00000300040CCCC000055550000FF0F00003A
:1046C000AAAA0000F8B52148026A410DC0239B0048
:1046D00013408B420CD0026ACB0113430362026A7F
:1046E0001B4B13400362026A1A4B134019430162C9
:1046F000016A802212020A430262010D02680A4323
:1047000002600068014000910098134C0026E660AA
:104710007F202061FF206061104F21000C313800A4
:10472000FFF77FF9012525716571A571220001212F
:104730003800FFF7A3F925726572A572E6722200B0
:10474000083201213800FFF7F4F9F1BD3C100240B6
:10475000FFFFFEFFFFFCFFFF580100200028004084
:1047600001490860704700000C00002070B5060089
:1047700000240F4D2978002916D0FA208000FCF77C
:104780008BFE01000B480068FCF786FE00F05DF828
:10479000002809D1042E07D2002231000020C04396
:1047A00000F045F8AE6000E00124200070BD00BFBD
:1047B000000000200C00002080B50D480121426857
:1047C0000A434260426811400091009980214905E6
:1047D00002680A43026000680140009100980022CC
:1047E0000021042000F023F8042000F025F801BD8A
:1047F0003C10024010B5C20018231340FF249C4017
:10480000E2438907090E9940030004D419489B0824
:104810009B00C01806E0184B0007000F08388008FE
:104820008000181803681A401143016010BD80B55C
:10483000FFF7E0FF01BD0000010005D40121C00623
:10484000C00E81400D480160704710B5401E8021A8
:104850004904884201D3012010BD094C6060032146
:104860000020C043FFF7C6FF0020A06007212160A1
:1048700010BD000000E400E01CED00E000E100E0FD
:1048800010E000E0FEE7FEE77047704738B53248B9
:104890000178324A13885B1C9CB2FA25AD00AC4209
:1048A00015DB002301242E4D2C702E4C25786D1E17
:1048B000AD41ED0F25700C0002D0491E0C0606D14B
:1048C0003C21294C2578002D01D06D1E25700170EA
:1048D000138000F05DF831BD70470000F8B5234843
:1048E00001680124890627D58268D2B2204F397821
:1048F0002048431800260A2A01D00D2A16D11E701E
:1049000021A100F04DF800280DD01B4D011D2800FD
:1049100000F05EF8E87A412802D118490C7000E0F6
:1049200000241748047000213970F1BD1A70491C29
:10493000C8B26428F8DBF6E74021416008214160F5
:104940000221416004214160446010214160810CDA
:1049500041608068F1BD0000A50100209E0100209B
:10496000A6010020AF010020A40100201C38014056
:10497000B001002090000020F4000020A8010020D9
:10498000A701002070470000524D432C000000009A
:104990000248416802788918416070470000002091
:1049A00070B50D78002D11D00C0004E0491C0E7874
:1049B000964207D0401C2900FCF750FB002805D088
:1049C000010023005B1C1A78002AEFD170BDFEE7BE
:1049D0000023DB435B1CCA5C002AC254FAD1704737
:1049E000F1B401684118436858080A1800988068B3
:1049F000DB0701D54B46C01891422DD00D78491CDC
:104A0000032403262E4002D10E78F61C491C2B09E4
:104A10000F2B07D10B780F33491C03E00F78491C8B
:104A20000770401C761EF9D1002BE5D00E78491C8A
:104A3000AD082C40032C01D10C78491C24023419F8
:104A4000654244190025AE1E9E42D5D02678641CCE
:104A50000670401C6D1CF6E700980C30F2BC7047E5
:104A6000686A6C747A4C00007072696E74665F7369
:104A70003A20256E20646973616C6C6F7765640001
:104A80007072696E74663A2062616420256E2061DE
:104A90007267756D656E74007072696E74665F73AF
:104AA0003A2062616420257320617267756D656EBE
:104AB00074000000000000006E616E004E414E0068
:104AC000696E6600494E46003000FEE7000041294D
:104AD000211C191716151413121211111110101090
:104AE0000F0F0F0F0E0E0E0E0E0E0E0D0D0D0D0DE7
:104AF0000D000000303132333435363738396162D9
:104B0000636465666768696A6B6C6D6E6F707172FD
:104B1000737475767778797A0000000070B4012399
:104B2000002413E00168001D194202D04D466918A7
:104B3000491E0C60091D121F042AFAD20D009607A7
:104B400001D50C80AD1C1A4000D02C700268001DED
:104B5000002AE7D170BC704700000000000024402C
:104B60000000000000005940000000000088C34021
:104B70000000000084D797410080E03779C34143AB
:104B8000176E05B5B5B89346F5F93FE9034F384DB3
:104B9000321D30F94877825A3CBF737FDD4F15755F
:104BA0000000000000000000000000000000000005
:104BB00000000000000000000000000000000000F5
:104BC00001000000020000000300000004000000DB
:104BD00006000000070000000800000009000000B7
:104BE00001000000020000000400000006000000B8
:104BF000080000000A0000000C0000001000000087
:104C000020000000400000008000000000010000C3
:104C1000686A6C747A4C000063436E5B00000000AD
:104C20007363616E665F733A2062616420256E2053
:104C3000617267756D656E74000000007363616E6C
:104C4000665F733A2062616420666C6F6174696E9E
:104C5000672D706F696E7420617267756D656E7413
:104C60000000000010B5074979441831064C7C4417
:104C7000163404E0081D0A68891888470100A1421B
:104C8000F8D110BD2C000000480000007363616E75
:104C9000665F733A206261642025632C2025732CA3
:104CA000206F7220255B20617267756D656E7400E0
:104CB0006DFEFFFF280100009000002000000000B2
:104CC00021FDFFFFAA0000007E0000000000002080
:104CD00000000000000000000000000000000000D4
:104CE00001000000020000000300000004000000BA
:104CF00000F00DF8002801D0FFF7B4FF00BF00BF9F
:104D0000002000BF00BFFFF7D7FB00F002F8012032
:104D1000704780B500F002F801BDFEE7074638464F
:104D2000FCF768FDFBE7FEE70548014603B468466B
:104D300080F3098800BF00BF00BF00BFFFF7D8FFA6
:104D4000A5EDF5FE01488047014800476D4D00087C
:104D5000294D0008FEE7FEE7FEE7FEE7FEE7FEE777
:104D6000FEE7FEE7FEE7FEE7FEE7000070474301CF
:104D70000001220408F0050724F4006A4D0008042D
:104D800052FF01E3CE101410010000E614214C2064
:104D900002100000204B20021B17000808521508C3
:0D4DA000123108121904524510E10161881A
:0400000508004D2979
:00000001FF
